:100000000C94291A0C94511A0C94511A0C94511AEC
:100010000C94511A0C94511A0C94511A0C94511AB4
:100020000C94511A0C94511A0C9472230C94E423DE
:100030000C94511A0C94511A0C94511A0C94511A94
:100040000C94511A0C94511A0C94511A0C94511A84
:100050000C94511A0C94511A0C94511A0C940C27AC
:100060000C94511A0C94511A0C94511A0C94511A64
:100070000C94511A0C94511A0C94511A0C94511A54
:100080000C94511A0C94511A0C94511A0C94511A44
:100090000C94511A0C94511A0C94511A0C94511A34
:1000A0000C94511A0C94511A0C94511A00FF0A1412
:1000B0002850FF000000FF42242442003C42898D6A
:1000C00081A1423C000C10113C52423C0018087DBA
:1000D000484878001028285444FF02020070080E97
:1000E0003040300E0022223E02023E0000201E1050
:1000F00014100000FF90909090908000FF919294D7
:1001000098908000FF919191F191919FFF91919131
:100110009191919FFF818181818181FFFF11111157
:10012000818181FFC2340C02818EB0C0C2B48C8246
:10013000818EB0C040414244485060404D4D4C4CCF
:100140004D4C4B57505F80BF8042F8FFF2F5F2F5FF
:10015000F5FBF6F2FD83315C639CFFFFF8FAFAFAD7
:10016000063296F41EEC01D7CF1F1FFFBF3FBF9F83
:100170002074C037C73EC8DC027FFFFFFFF8428013
:10018000BF805F50574B4C4D4C4C4D4DFFFF9C6317
:100190005C3183FDF2F6FBF5F5F2F5F2FF1F1FCFA0
:1001A000D701EC1EF4963206FAFAFAF8FFFF7F0246
:1001B000DCC83EC337C074209FBF3FBFFDFCF7F7CC
:1001C000FFFEFCFDFCFEFF03F8FFFF007F7F7F7F4B
:1001D0007F7F7F7F7F7F7F704F3F1F008E3EFEFEC1
:1001E000FEFEFE3EC6FAFAFAF60EFE002FDE38FBE1
:1001F0007B1B0D2EDF1FFFFF07F8FF0000FEE0CE88
:100200009EBFBFBEB9336F6F00FFFEFC007F7F7FD4
:100210007F7F7F7F7F7F7F007E7F7F7F00FEC2F6B4
:10022000FEE2DEE6DEE2FEFE3E8EF6F600BF3FFFB9
:1002300033EFDF03DFE7FFFF00FF1F0F7F7F7FFF4D
:1002400001FE0A6A0A5ABE519B03FF7FFDFDFDFDB8
:10025000FDFCFCFCFCFCFCFCFCFDFDFD7F7F675B0A
:100260003BEDBDD5DB671FFF7F7F7F7FFDFDFDFD84
:10027000FDFCFDFCFCFDFDFDFDFDFDFDBFDFEFFE1A
:10028000FF7B996FE7DBBB75FF00FFFFFDFDFDFD09
:10029000FDFDFDFDFDFDF9E5CCDCD0C1DBBB7BFB4D
:1002A000FBEB9B6B7BBBDBEBF303070FFFFF1FEF4E
:1002B000FBF3FFFFFEFDFDFAFF00FAF8FFFFFF0072
:1002C000FF75BBDBE76F997BFEEFDFBFFFFFFFF83A
:1002D000F0EDDDD9D1C1C5FDFDFDFDFDFFFFFF0343
:1002E000F3EBDBBB7B6B9BEBFB7BBBDBFFFFFF0025
:1002F000FFFAFDFDFEFFF3FBEF1FFFFFFFFFFFFF18
:1003000043BD5A66665ABD837FFFFFFFFFFFFFFFB5
:10031000FCFFFFF8FFFFFFFFFCFFFFFF9B2B4BBB2A
:10032000FBFBFBFBFBFB03FFFFFFFFFFD6D9DFDF80
:10033000DFDFDF1F5F1FC0FFFFFFFFFFFFFFFFFFCC
:10034000FF03FBFBFBFBFB8B6B2B9B7BFFFFFFFF91
:10035000FFC01F5F1FDFDFDFDFD9D6D503FD3535D7
:10036000B5B5B535FDB5BD75FD03EF1F807F4050B8
:100370005C445C407F6B6B4F5B5A7F80FF7F3F5FCD
:100380006F777B75757B776F5F3F7FFF807B47174C
:100390004378126D6D12744F27536F8000E11EFF7A
:1003A000EFD7EFFFFFEFFF000000FFFFF0EBE2F8F9
:1003B000F8F8F8F8F8F8F8F8F8F4EBE701FD01B907
:1003C000B9B9B9B9B9B9B901FD01F5F300FF02FA3C
:1003D000FAB6D6F6F6FAF2060F00FFFFFF7F3F5F90
:1003E0006F777B75757B776F5F3F7FFF807F5B5B90
:1003F0005B5B5B7B7B7B7B7F7F7F7F8001FEFEF097
:10040000EEEEEEEEEEEAEEF0FEFDFB07807F017E03
:100410006A7E6A6A6A6A6A6A7E017F807F9BE5C932
:10042000D5ADB9BDBDBDBDDDDDE58B7FF8C50B1715
:100430002F1F3F1F3F7F7F7F7F3FC7F800FEFEE6F5
:10044000D2CACACAC2C2C2E2E6FEFE00007F471399
:100450002D0505590D21250D1B477F0000FEFEE6E9
:10046000D2CACACAC2C2C2E2E6FEFE00007F473B51
:1004700025014D1D15354D1D2B477F00EBABAB6B9B
:10048000EBEBEBEBEBEBEBEB6BABABEBFFBFB3B740
:10049000BEBDDBE7E7DBBDBEB7B3BFFF00AADDDD56
:1004A000AA775577EEAAEE55BBBB550000AADDDD55
:1004B000AA775577EEAAEE55BBBB550007FBFD6E3C
:1004C000FE6EFE00FE6EFE6EFDFB07FF003F7F5BD3
:1004D0007F5B7F007F5B7F5B7F3F00FFFFFFFFFF56
:1004E000FFFF00EEEEEEEEE1FFFFFFFF07EBEDEEAC
:1004F000E0EE0EEEEEEEE0EE0EEDEB070F707E702E
:1005000077007E7077707E0077707E7000777777E7
:100510007077077777777077770777777F7F7F7F39
:100520007F7F7F7F7F7F7F7F7F7F7F7FFDFDFDFDE3
:10053000FDFDFDFDFDFDFDFDFDFDFDFDFAFAFAFAF7
:10054000FAFA00FEFE00FFFFFFFFFFFFFFFFFFFFC5
:10055000FFFF00FFFF00FFFFFFFFFFFFFFFFFFFFA9
:10056000FFFF00FEFE00FAFAFAFAFAFAFFFFFFFFB9
:10057000FFFF00FFFF00FFFFFFFFFFFF7F7F7F7F89
:100580007F7F7F7F7F7F7F7F7F7F7F7FFDFDFDFD83
:10059000FDFD01FDFD01FDFDFDFDFDFDFAFAFAFA8F
:1005A000FA3ADAEAE2EADA3AFAFAFAFAFFFFFFFF8F
:1005B000F9F4F6F4F4F6F6F4F9FFFFFFFF00FFFBA1
:1005C0001D0DC7E7E7F7ED1DFBFF00FFFF00FF95DF
:1005D000B6ECF8F9F9F9ECB695FF00FFFF1FEFD77D
:1005E000F7F7B7D7B7B7F7F7D7EF1FFFFF007FDEF3
:1005F000ECDAFFECE9FADFEAFD7F00FF59C6D6141A
:1006000031C3EBE92CAD4C65630BD81BB00E6671A2
:10061000228C3E3C4C31EB07B3B88D300000008F8C
:10062000CFCF4F6F2F77173BCBDDDD0102F7F1F115
:1006300000FDFC00FFFFFF00DF0FEF00FFFFFF1FCB
:100640005F0F6F07D7C3DB01F5707600017D7D007A
:100650002F0737006B616D607A787B0007F31B5BB7
:10066000F39B739BF3DB13FBD31BD307F0E7ECE5A2
:10067000EFE4EFE4EFE5ECE5EFECE7F03FDFEFEF81
:10068000DF332D1E1E2D33DFEFEFDF3FFFFEFDFDBD
:10069000FEFF0FE0E00FFFFEFDFDFEFF38FBBB5B42
:1006A000DB4B5B5BBBFBBBBBBBBBBBBB38BBBBBCEC
:1006B000B9A2A9BCBBBBBBBBBBBBBBBBFE7DBDDB8F
:1006C000C7BF7FFFFE7DBDDBC7BF7FFFFE7DBDDBFC
:1006D000C7BF7FFEFE7DBDDBC7BF7FFEFFFFFFFF05
:1006E000FFFF00FFFF00FFFFFFFFFFFFFFFFFFFF18
:1006F000FFFF00FFFF00FFFFFFFFFFFFFF07FBFD06
:10070000FDFDFD01FDFDFDFDFDFB07FFFFE0DEBE84
:10071000BEBEBE80BEBEBEBEBEDEE0FF83BBBBBBF8
:10072000BBBBBB38BBBBBBBBBBBBBBBB83BBBBBBD4
:10073000BBBBBB38BBBBBBBBBBBBBBBBFF01FEFE7C
:10074000E6CAC2CAC2CAC2E67EFE01FFFF807F7F40
:100750007F7F7F7F7F7F7F7F7E7F80FFFF122512DD
:10076000FF122512FF122512FF122512FFE102E1EE
:10077000FFE102E1FFE102E1FFE102E1FFFFFF5FD4
:100780003F5FAB891389AB7FBFBF7FBFFFFFFFFF19
:10079000FEFDEAD081D0EAFBFBFCFFFF77B3CDEE94
:1007A000773BDDEC73BADDCE373BDCEE75BBDDCEDF
:1007B00037BBDCEE77B3CDEE773BDCEEDF4E9F6FE1
:1007C0006F6FAFCF6FEFDFBB7FFFBFFFFF601EBF5D
:1007D0003B9CB1AFBFBBB3BDDEA997FFFFFEFFEFF0
:1007E000E7FFFFFFFFFFFFFBFFBFFFFFFF7F7FFB79
:1007F000F7FBFFFFFFFFB7F7FFFBFFFFC44366D424
:100800001C040C1453705C870C0888FC3B8448481B
:1008100049494DA7140C74C4C7C5C8B8E32624744D
:100820009C848C9350705C870C0888FCB54A4444C7
:10083000444446A31C3444C2C5C9B88455885522D3
:1008400055885522AAFFAAFFAAFFAAFFAAFFAAFF5E
:10085000AAFFAAFF55885522558855220202030394
:100860000101000003030303020202020303020268
:100870000000000103030202000001010000010169
:100880000101000001000101000003030303020253
:100890000303020203030202000001010100000041
:1008A000020003010001000102000200000000003C
:1008B000000001010200020100010001020100012B
:1008C0000001000103010303020200010001000115
:1008D0000001000100010001000001010303020208
:1008E00000000101030100010001030302020101F4
:1008F00000000000010103000300000100010303E8
:1009000002020303020203030303030302020101C1
:1009100000000303020201010000FF00FF010001CB
:10092000FF00FF01FF01FF01FF01FF00FF01FF01C9
:10093000FF00FF00FF01FF00FF03FF0000000101B7
:1009400003FF03FF00000201FF000908000809007F
:10095000080C000C08000C0D000C0D000D0C000D17
:100960000C000D0E000E0D000E01020E0E000E0FFB
:10097000000F0E000F0B000B0F000B0700070B0002
:10098000070B000B0700070002070B000B00010616
:100990000700060700070600090A000A09000A0BFB
:1009A000000B0A000A0600060A000B01010F0102F3
:1009B0000C01020F02010F03010F04010C06010CD0
:1009C00007010808010809010810001008001001BB
:1009D00002101000100A01100B01100C01100D0183
:1009E000100E01100F011010011011001110001154
:1009F0001101111201111301111401111501111628
:100A00000111170108040004080004050005040092
:100A10000400000004000418010419010419010570
:100A2000060006050005090009050005120012056B
:100A300000120002120102001A01001B0100010055
:100A4000010000000100010000011300130100017A
:100A50000200020100020600060200020300030277
:100A600000030700070300030102071B01031C0129
:100A7000071D0113F500F5F600F6F700F7F800F88A
:100A8000F900F9FA00FAFB00FBFC00FCFD00FDFE9A
:100A900000FEFF00FF14000B010206140014060004
:100AA000121E01121F010A0B000B0B000B0902148E
:100AB00014141414141414141414141414141414F6
:100AC0001414141414141408080504011414141430
:100AD000141414140505050808080104040114146D
:100AE000141414140202080808081414140401143D
:100AF0001414140505020804080808141414141426
:100B00001414140508010104040805141414141421
:100B10001414050801150104011414050606061431
:100B20001414080801160606060606060114141415
:100B300014140801010606010F01141414141414EE
:100B400014140804040601010C01011414141414F3
:100B500014140804050604011401010114141414EA
:100B600014080804010604010101010D01142614F2
:100B7000080808010606010B010A210A210D0114CB
:100B8000080808040601010D210D090A010A0114D3
:100B900008080104060606060606060121010114DE
:100BA0000801040406010101010101010101011410
:100BB00014141414141414141414141414141414F5
:100BC00004141414141414141414141414141414F5
:100BD000010101141414141414141414141414041E
:100BE0000106060613141414141405050514141430
:100BF000141414141414010105010505050401144D
:100C000004010404040101040101010404040106B7
:100C1000060605050606050506060206060606146E
:100C200014140514141414141402020207070714F0
:100C30001414020202020202140202141414141404
:100C400014140202020202021414141414020214F4
:100C5000140014140202021402020202020202141C
:100C600014020202141414140202020202020237D5
:100C700039373937393739373937393739373938F3
:100C80003A383A383A383A383A383A383A383A37D5
:100C900039373937393739373937393739373938D3
:100CA0003A383A383A383A383A383A383A383A14D8
:100CB00014141414141414141414141414141414F4
:100CC00014141414141414141414141414141414E4
:100CD00014141414141414070714141414141414EE
:100CE0001414141402020202070114140505140559
:100CF000141414020205010701070101010514057E
:100D000005050101010101010101010501011406AF
:100D10000606060606060606060606060606061E5B
:100D20001E1E1E061E1E1E1E060808080814141D80
:100D30001D1D1D061D1D1D1D060807040814140A8F
:100D40000B0B0A060A0B0B0A060804070108140A13
:100D50000A0A0A060A0A0A0A060808010708140A03
:100D60000E090E060A0E090E0606060804080801FA
:100D7000010604060404060404040606080108012A
:100D80000106060606060606060104060808080708
:100D90000407010701070107010701060801010116
:100DA00007010701070107010701070601010114F7
:100DB0001414141414141414141414140202021429
:100DC000141414141414141414140102020202143E
:100DD000141414141414141414010101020202084E
:100DE0001414140808141401011501070102020863
:100DF000080808080808010101160101010202089B
:100E0000040404040101010101010101011414069B
:100E1000060606060606060101010101141414085F
:100E20000808080801040606040401010114140856
:100E30000808080504080806040501010101140852
:100E4000080804080808080606040101011414082B
:100E50000808040808080808060505010101140827
:100E60001504080808080808060104040101141400
:100E70001B04041B1B1B1B140606040101011407A1
:100E800004071A070407040C0806040101011404EE
:100E9000040404040404070C0806010101141407E7
:100EA0000407040704070414080601141414141496
:100EB0000808040406240D04070107012121211458
:100EC0000101080406240407040D04070A0A0A1491
:100ED00020020104060F2121212121010A0A0A0210
:100EE00020020214060C0A0A0A0A0A070A090A0260
:100EF0002002020C06140A0A0A0B0A01010601026A
:100F00002002020C06040A090A0A0A010606010266
:100F10002002020C0604070608080807060401025E
:100F20002002010C060606060F080807040F01023E
:100F300020020114010606010C010807040C01023D
:100F4000200201010104060114010606060606023C
:100F5000200202010405060606060601010101023F
:100F6000010101040808050806011D1B1B1B1D01CA
:100F700001040404080808050601191C1C1C0C08BF
:100F8000080505050805080806012E1C1C1C0C0890
:100F900008080808080808050601191C1C1C0C088C
:100FA000080808080808080506011D1B1B1B1D145E
:100FB00014141414141414141414141414141414F1
:100FC000212121141414141414142424241414148A
:100FD0000A0A0A1414141414010101010101141461
:100FE0000A090A14141414141D1E1D1E1D010114D7
:100FF0002D040414141414140A0A0A0A0A01011410
:1010000004040621211414140A0A0B0A0A010121FE
:101010002121060A0A1414140A0A0A0A0A01010AFA
:101020000A0A060A0A070C07212121212101010AC7
:10103000090A060A0A070C010A0A0A0A0A01010635
:101040000606060A0A070C010A0B0A0A0A01010130
:1010500004040606060714010A0A090A0A01010126
:1010600021212121060606010701060701060604C3
:101070000A0A0A0A240606060601060107060804EB
:101080000A0A0B0A240607010606060701060804D9
:101090000A090A0A06062D2B2C2D0606060608014B
:1010A00004060606010701070107010706080808EC
:1010B00008040404040404040404040608080804DE
:1010C0000404011E011E011E010404060608080492
:1010D0000101011D1D1D1D1D01010101060808045E
:1010E0001E011E0A0A0A0A0A1E011E010401080442
:1010F0001D1D1D1D1D1D1D1D1D1D1D0404040104A0
:101100000A0A0A0A0A0A0A0A0A0A0A040F040F0447
:101110000A0E0B0E0A0A0A0E0B0E0A040C040C042B
:101120000A0A0A0A0F1F0F0A0A0A0A040606060418
:10113000040404070C200C07040404040606060437
:10114000040F04040720070404040F04060608041F
:10115000040C04070420040704040C040606080613
:10116000060606060606060606060606060608081B
:10117000080806060F06060F06060F06060F0808E3
:10118000050406080C01010C01010C01010C080802
:101190000804060801080801010101010108080806
:1011A00008080608080808080808080808080804C5
:1011B00007040704070407040706050808141407B2
:1011C00004070407040704060606080805081404B3
:1011D00007040704060606061508050101011407A1
:1011E00004070407060101010101050101141404AB
:1011F0000704071506010F0102020202021C1C0F60
:10120000040F060606010C020202020202021C0C76
:10121000070C0608011402020202021C021C02064C
:10122000060606060F0C02020202151C1C15020F10
:10123000060F06060C0C020202021C181C16140CE7
:10124000080C06061414020201040C1C010C1C08F4
:1012500008060606010C0202040415041C1C1408EE
:101260000F0606060F0C02020201161C18161408BF
:101270000C0606060C1402020201010104181C08E7
:1012800008060606010C020202021C0104151408DD
:10129000080F0606010C02020202020204161408DC
:1012A000080C0606011402020202020206161408C5
:1012B00008080808080808080608080808040408B8
:1012C00004040404080808080608080808080804B4
:1012D000080808080808040806080808040808049C
:1012E00001010101040404080608080404080801B7
:1012F0000A0D0D0D0D0D0A0806080806080808015C
:101300000A0D0D0D0D0D0A08060808060808080448
:101310000C0A0A0A0A0A0C08060808040808080445
:101320000C0A0B0A0B0A0C04060808060808080435
:101330000C0A0A090A0A0C0406080D040408080429
:10134000040407060704040506080804040808083E
:10135000040104060606060606080806080808082A
:101360000808010101010108060808060808080824
:101370000808080808010408060808060606060802
:1013800008080404040408010606060608080808FC
:1013900008040408040408010608080808040808EA
:1013A00008080808080808010608040404040808D6
:1013B00008040808080808080808010106040108CC
:1013C00004080408080808040408080106010408C1
:1013D00008010101010101010104040806042108BA
:1013E000080A0A0A0A0A0A0A0A040F0106040A0875
:1013F000040A0D0D0D0D0D0D0A040C0106040A085A
:10140000080A0D0D0D0D0D0D0A05040106040A084C
:10141000040A0A0A0A0A0A0A0A0905010604040853
:10142000080C0A0B0A0A0B0A0C0605010606060838
:10143000080C0A0A0A0A0A0A0C05010106050F0827
:10144000080C0A0A090E0A0A0C05010606010C0816
:10145000040C0A0A06040F01010606060101010830
:10146000040C0A0A06040C01060601010202020627
:10147000060606060606060606010202020202012A
:101480000504040104040401010202020202020133
:101490000104010104070402020202020201010127
:1014A0000202020202020202020202010404010814
:1014B0000808060808080808040A0A0A0A0A0A08A6
:1014C0000804062121212107080A0B0E0A0B0E2110
:1014D000210F060A0A0A0A010F0A0A0A09090A0B59
:1014E0000A0C060A0B0B0A171A0606060606060A57
:1014F0000E04060A0A0A0A240C0624240407070913
:101500000A04060A090A0A010C0606240105050652
:1015100006060606062121212121062401020521B5
:1015200021212121060A0A0A0A0A06060102050AE1
:1015300017170B0A040A0B0A0A0A06012402140AE6
:1015400011110A0A040A0A0A090A060F070202060A
:1015500006060606040406060601010C020202073E
:10156000010107010102020202022002020202023C
:101570000202020202020205050220020502020224
:10158000020505050505020202022002020202050B
:1015900005010101150205050505200508080808D3
:1015A00008080808040404010401060705080808DF
:1015B00001010106010102020202020206161401E3
:1015C00006060606080402020202020104161408B6
:1015D00006140808040202020201040401021407AE
:1015E000060508020202020201181B18020514086F
:1015F0000614070202020202020514141414140154
:101600000601070202020202071413061507140856
:10161000060F080202020202050506060607140666
:10162000060C05020202021407140505040714083B
:101630000414010502020214051414140505140211
:10164000010104010202021414140D1414141402F2
:10165000020207020202020514140D0D1405050210
:101660000502020205020202051917171A140502E3
:101670000202010205050202150C04010C14050208
:1016800001150101020202050101010405141404FF
:101690000804040102020408010401010405140401
:1016A00004080804080408080601040405051404D5
:1016B00004040808080808010601080801020204D9
:1016C00007040404080801010601080102020208D7
:1016D00004040808080606060601010202020208C0
:1016E00008080804010604040401020202020208B8
:1016F00008040501010601040102020202070708AD
:10170000080404040106010102020202070108089C
:10171000040801010706010202020201010808088B
:101720000801070101040202020202010108080186
:10173000010101010110020202020201080808026F
:10174000020202020210020205020201080508025A
:101750000202020202100205040202010808080245
:10176000020202020106070404020201080806023E
:1017700002020201010606011010101006060608FA
:101780000802020101060104020202010108080820
:1017900008050401060604080402020107080808F7
:1017A00008080404010108080402020101010802FA
:1017B00002020202020202020202040701010702FF
:1017C00002020201040401010104040108080102EB
:1017D00004010101010808080808080808080101B7
:1017E0000101010601080808080808080808080798
:1017F0000104040608080807010808080808080189
:101800000104010606060606060606060606060189
:101810000407010608040804010101070801070183
:101820000407040608080202020204010808010174
:101830000404050608020204040202010808080163
:10184000010404060802020504020202010808015C
:101850000606060608080202020702020108080638
:10186000060108060808040402020202010808062C
:101870000501010608080808080202070108080116
:1018800008040806060606060804010808080808F1
:1018900008040808080808080801070808080108DB
:1018A00008080808080808080808080808010108C6
:1018B00008080D0D0D0D0D0D0D0D08080808080880
:1018C000080D0D0A170A0A170A0D0D08080808085E
:1018D000080D0A0202101002020A0D080808080882
:1018E000080D0A0702101002070A0D080808080868
:1018F00008010101010101010106060606060606AE
:10190000060606010F010606060604080808080771
:10191000010706010C01060A07060A04080F080859
:10192000070506060606060D0A060508010C01084D
:1019300008010108080808080D0606060114010838
:10194000010108010808080801010808010101084F
:10195000010808010808080801080808080608081E
:10196000040804040401010101141408060608080F
:1019700004010408080808010814080706081408E8
:1019800004040804040715010801010608141408DA
:1019900008080404140101040401060614141408C0
:1019A0000808081414141414141414141414140728
:1019B00004080D0D0808040806080808080814049F
:1019C0000408080D0404040806080808081414088C
:1019D00019170808040408060F0808080414140856
:1019E0000C080806060606060C010808081414066A
:1019F000060606060101010814010804041414086F
:101A00000101010108080101010104041414140179
:101A10000108080804080801171A04021414140124
:101A20000808080808080808080C0802020214013F
:101A30000D08040808040408080808020814140122
:101A4000080808040804080815080204150414010D
:101A500008080808080808081604080416041401F1
:101A600001010108010101080118181801011414ED
:101A700014040D080D080101040C0D0C01041414CC
:101A800014140404080808041519171A150414146A
:101A90001414140D0414020116140F141614141443
:101AA0001414141414020204040104011414140084
:101AB0000000000000000000000000000000000026
:101AC0000000000000000000000000000000000016
:101AD000000A0A0A0A0A0A0A0A0A0A0A0A0A000084
:101AE000000A0A290A2E29141414142E2E0A0000A2
:101AF000000A272B0A2E2E1422221424240A000066
:101B0000000B28010A01010101010101240A000062
:101B1000000A01010A012F3333333331010A000077
:101B2000000A01010A01303534343632010A00005E
:101B3000000A2D010101012D2D012D01010A0000D6
:101B4000000A0A0A0A01010101010101010A00005B
:101B5000000A01010101010101010A0A0A0A00004B
:101B6000000A012421212121212101120A0A000059
:101B7000000A012A0A29290A260A01010A0A000084
:101B8000000A01070A0A0A0A0A0A07010A0A0000EB
:101B9000000A010101010101010101010A0A00001D
:101BA000000A0A0A0B0A0A110A0A0B0A0A0A0000AA
:101BB0000000000000000000000000000000000025
:101BC0000000000000000000000000000000000015
:101BD000000A0A0A0A0A0A0A0A0A0A0A0A0A000083
:101BE000000A2E2E2E2E2E2E2E2E2E2E2E0A0000E7
:101BF000000A2E2E2E2E37392E2E2E2E2E0A0000C3
:101C0000000A34343424383A24343434340A00009A
:101C1000000A07070701010101070707070A00007B
:101C2000000A0101012F333333310101010A0000A1
:101C3000000A01012D30343534322D01010A000033
:101C4000000A01010101012D01010101010A000049
:101C5000000A01010101010101010A0A0A0A00004A
:101C6000000A012121212121212113010A0A00005A
:101C7000000A012629262929262624010A0A00000D
:101C8000000A010A0A0A0A0A0A0A01010A0A0000ED
:101C9000000A010101010101010101010A0A00001C
:101CA000000A0A0A0A0A0A0A0A0A0A0A0A0A0000B2
:101CB00014000000140014001400000014000000C0
:101CC0001400000014141400140014001400000088
:101CD000140000001400140014001400140000008C
:101CE0001414140014001400001400140000000068
:101CF00000000000000000000000000000000000E4
:101D00000000000000141414141414140000000047
:101D1000000000001414141414141414140000000F
:101D200000001414141414142414141414140000B3
:101D3000001414141414242424141414141400006F
:101D400000141414142401010124141414140000A8
:101D50000014141414240124241414141414000062
:101D60000014141414240101012414141414000088
:101D7000001414140A240124240A14141414000056
:101D8000001414140A240101010A1414141400008C
:101D9000001414140A240124240A14141414000036
:101DA000001414140A0A110A0A0A14141414001450
:101DB00014141414141414141414141414141414E3
:101DC0001414141414140114080812141414141400
:101DD0000812141414140101080808081414141427
:101DE00008081414141401141401140814141414FD
:101DF000140801141414041414011401011414140B
:101E000014010414141C041C010114010201141413
:101E100014011414040401141C01140102141414F8
:101E200014011404041C01141C04140402141414DA
:101E300014041414141C01140101140402141414C5
:101E400014040414141C04010114140402021414D4
:101E50001414041414140414141414010202141499
:101E600014140114141404141408010102021414AB
:101E700014010101071401141414010202141414B2
:101E8000140C040C040104010101010202141414D5
:101E90000C0104011414140101020202141414149C
:101EA0001414141414141414141414141414140AFC
:101EB0000A0A0A0A0A0A0A0A0A0A0A0A0A0A0A0A82
:101EC0000A0A0A0A0A0A0B0B0A0A0A0A0A0A0A0A70
:101ED0000A0B0A0A0A0A0B0B0A0A0A0A0B0A0A0A5E
:101EE0000E0A0E0A0E0A0A0A0A0E0A0E0A0E0A3311
:101EF0003333333333333B3D333333333333330AC9
:101F00000A06010601063C3E06010601060A0A0A07
:101F10000A0601060106060606010601060A0A0A65
:101F20000A0601060101010101010601060A0A0A69
:101F30000A0601060606060606060601060A0A0A3B
:101F40000A0601010101010101010101060A0A015C
:101F50000106060606060606060606060601010135
:101F60000101010101010101010101010101010161
:101F70000101010101010101010101010101011D35
:101F80001D1D1D1D1D1D0101011D1D1D1D1D1D0AE8
:101F90000A0A0A0A0A0A0101010A0A0A0A0A0A0ABC
:101FA0000A0A0A0A0A0A0120010A0A0A0A0A0AF2A5
:101FB000E8F237EFF2161709EE944E25F2020315F8
:101FC0000607E9EA15310C0DF2E5E6E7E8F20056FE
:101FD0000C0DF20C74F2766114F22F37093C1125C6
:101FE00046F28ED9CBDACCCD90E40025DDDEF2DFEF
:101FF00044090A0BE075E1E290E3F28ED9CBDA8B6B
:1020000090B5DBDCDDDEF2D2D3D4D5D6D78AD8F2D8
:10201000CB41047475371966CCCD46CECFD0D1F202
:102020000437ABA6123F2B3C46C83AC9CAF1334C21
:10203000554700434154F13241494E00374F524C0D
:1020400044F2C6060714626359C7375455564CF21A
:10205000C2B3C3C4B2C5042C0607F2042C0607465B
:10206000BFC03715C146F2BA2FBBBC4612B190852E
:10207000BDBEBEF237B8B9F2AEAFB6B7F2B0B12B53
:10208000B258B38BB4B5F237AEAFF2ABA68630AC74
:10209000AD93942A2BF2A69FA037A7A8A9AA03F272
:1020A000009FA037A1A2A31E46A4A5F28C371299C7
:1020B0009A9B9C9D9E46F20437129798F28E8F0849
:1020C00046779091929394951296F288898A8B8C98
:1020D0008D4AF2042C8384858606078711F2043723
:1020E000122C81824683F204097F371280464AF21D
:1020F0007D7E464AF2084609657B7C71F200013715
:1021000078797AF276771561F21512737475F208A0
:1021100046710972F2696A6B466C6D6E6F6C70F293
:102120006509522C66566768F22F153164F26263B6
:102130002A2B4D4EF25811595A5B5C175D5E5F6059
:1021400061F209112627525354555657F2354C1057
:102150002A4D4E4F2E37060746125051F242432069
:1021600035444546471748494A4BF23536373839E2
:102170003A3B3C1C3D3E3F4041F22D2E2F30313248
:102180003334F2262728292A2B042C0607F2191AA1
:102190001B1C1D1E1F20092122232425F2140115BA
:1021A000161718F20E0F10111213F2040607080C7E
:1021B0000DF20405060708090A0BF200010203D517
:1021C000F08D14A1C881CFD9F1AF2000F2EBECED76
:1021D0008A454E4400000C0F0C0F0C000C090F092F
:1021E000000900090F0F0B000B0F0C000C000B0F68
:1021F0000B000C0F0C0F05000500050F05070E0165
:1022000001070E07020F04000400040F040900096F
:102210000F090F09000400030F030F0400040F044B
:10222000000D000D0F0D0F01000D0F020E0D01002E
:10223000010F0700070F08000700070F070F07002F
:102240000600060F070F03000700070F0303000334
:102250000F030F0300020E02040B0E0102030E0116
:10226000030C0A0507090B080A090F0B0D0C0C0ECD
:102270000F090C1011040A12130C0B141504090891
:102280000F080F04090405030404050306090516D5
:10229000160A05171A05081B1B08081C200B082125
:1022A0002304052425030C26280C0B0C0B0B0B0B0D
:1022B0000B0706292908062A2A08092B2C040E2DAB
:1022C0002D060E2E2E090E2F2F0A0E303009000972
:1022D0000F090F09000F09000900090F0905000582
:1022E0000F050F05000A0D3131080632320E043297
:1022F000320F0B000B000B0F0B0D0F0D000D000D1F
:102300000F0204070F070F020409090105090B0258
:10231000060F0C3333060834340F06000600060F90
:10232000060F03000300030F03050301020202046A
:10233000030F06000600060F060C0F0C000C000C25
:102340000F0F06000600060F060A0F0A000A000A11
:102350000F0C030107090334340A0535350D0D361A
:10236000360B0107070F0007070F0F0707000F07BE
:1023700007000F0707000007070F0F07070F0F07DA
:1023800007000007070F0007070F0F0707000000EF
:102390000B030A01080608080F080F060809093987
:1023A00039090B3A3A050F0D060B050B0C0D06010A
:1023B0000905090707070F0C090F0E0F0B0D07057D
:1023C000090B06060507090509090B080E060B0C83
:1023D0000A0B040A05040D0C0B0E0B090E10090C58
:1023E0000C0D08040305050C05080302080B000288
:1023F000020201000904000001020200000524009D
:10240000100105240101010424020605240600012F
:102410000705810310004009040100020A000000C2
:102420000705020240000007058302400000040384
:10243000090412010002EF0201404123368000012D
:102440000102030141726475696E6F204C4C4300B8
:1024500041726475626F79000000000000FEFF07A2
:10246000FBFAFABA7BBBFBFBFBFBBB7BBBFBFBFBBF
:10247000FB07FFFE000000000000000000FFFF005F
:10248000FFFFFFBEBFDEDFDBDBDFDEDFDEBFFFFF28
:10249000FF00FFFF000000000000000000FFFFFE43
:1024A000FDFDFD9D8D9DFDFDFDFDFDFDFDFDFDFD8C
:1024B000FD7EFFFF0000000000000000007FFFFD28
:1024C000F8F8FFCF8FCFFF78787D7FFFEFC7EFFF62
:1024D000FEFCFE7F000000005245424F4F54005367
:1024E0004554555020454550524F4D00434C4541B1
:1024F0005220454550524F4D0053415620434845C8
:10250000434B204552524F52210001020408102033
:10251000408000000000003E5B4F5B3E3E6B4F6B17
:102520003E1C3E7C3E1C183C7E3C181C577D571CB4
:102530001C5E7F5E1C00183C1800FFE7C3E7FF002D
:1025400018241800FFE7DBE7FF30483A060E26297B
:10255000792926407F050507407F05253F5A3CE73E
:102560003C5A7F3E1C1C08081C1C3E7F14227F2204
:10257000145F5F005F5F06097F017F006689956ACF
:10258000606060606094A2FFA29408047E0408105A
:10259000207E201008082A1C08081C2A08081E1083
:1025A0001010100C1E0C1E0C30383E3830060E3E3B
:1025B0000E06000000000000005F0000000700079A
:1025C00000147F147F14242A7F2A122313086462C4
:1025D00036495620500008070300001C2241000025
:1025E00041221C002A1C7F1C2A08083E0808008083
:1025F000703000080808080800006060002010081B
:1026000004023E5149453E00427F4000724949491B
:10261000462141494D331814127F1027454545394D
:102620003C4A494931412111090736494949364651
:102630004949291E00001400000040340000000831
:1026400014224114141414140041221408020159D4
:1026500009063E415D594E7C1211127C7F49494961
:10266000363E414141227F4141413E7F49494941F6
:102670007F090909013E414151737F0808087F0025
:10268000417F41002040413F017F081422417F40AB
:102690004040407F021C027F7F0408107F3E414182
:1026A000413E7F090909063E4151215E7F091929F2
:1026B00046264949493203017F01033F4040403FDC
:1026C0001F2040201F3F4038403F6314081463031D
:1026D000047804036159494D43007F41414102049C
:1026E000081020004141417F0402010204404040A3
:1026F0004040000307080020545478407F28444499
:10270000383844444428384444287F3854545418B2
:1027100000087E090218A4A49C787F0804047800AD
:10272000447D40002040403D007F1028440000418F
:102730007F40007C047804787C08040478384444A2
:102740004438FC1824241818242418FC7C08040499
:1027500008485454542404043F44243C4040207C02
:102760001C2040201C3C4030403C44281028444C55
:102770009090907C4464544C440008364100000022
:10278000770000004136080002010204023C2623C3
:10279000263C1EA1A161123A4040207A385454557B
:1027A0005921555579412154547841215554784047
:1027B00020545579400C1E527212395555555939CD
:1027C0005454545939555454580000457C41000222
:1027D000457D420001457C40F0292429F0F0282560
:1027E00028F07C545545002054547C547C0A097FC1
:1027F0004932494949323248484832324A484830D9
:102800003A4141217A3A42402078009DA0A07D398A
:10281000444444393D4040403D3C24FF2424487E0C
:102820004943662B2FFC2F2BFF0929F620C0887EF9
:10283000090320545479410000447D413048484AFE
:1028400032384040227A007A0A0A727D0D19317DB1
:102850002629292F28262929292630484D40203885
:102860000808080808080808382F10C8ACBA2F1044
:102870002834FA00007B000008142A142222142AAB
:1028800014089500220095AA005500AAAA55AA5539
:10289000AA000000FF00101010FF00141414FF0025
:1028A0001010FF00FF1010F010F0141414FC0014AE
:1028B00014F700FF0000FF00FF1414F404FC1414CC
:1028C00017101F10101F101F1414141F00101010C9
:1028D000F0000000001F101010101F10101010F05A
:1028E00010000000FF101010101010101010FF103A
:1028F000000000FF140000FF00FF00001F10170081
:1029000000FC04F414141710171414F404F4000059
:10291000FF00F714141414141414F700F71414140B
:10292000171410101F101F141414F4141010F010AA
:10293000F000001F101F0000001F14000000FC1416
:102940000000F010F01010FF10FF141414FF14100A
:1029500010101F00000000F010FFFFFFFFFFF0F05D
:10296000F0F0F0FFFFFF0000000000FFFF0F0F0F6F
:102970000F0F38444438447C2A2A3E147E02020653
:1029800006027E027E0263554941633844443C049A
:10299000407E201E2006027E020299A5E7A5991C12
:1029A0002A492A1C4C7201724C304A4D4D30304835
:1029B000784830BC625A463D3E494949007E010193
:1029C000017E2A2A2A2A2A44445F444440514A4428
:1029D0004040444A51400000FF0103E080FF0000F6
:1029E00008086B6B083612362436060F090F0600EE
:1029F0000018180000001010003040FF0101001FF7
:102A000001011E00191D1712003C3C3C3C00000057
:102A1000000000002040404040867C7848784E7C92
:102A2000000000010202020202019F3F3F3F3F1FE0
:102A3000800000000030202040807E7C487A4E7C60
:102A40000000000E0101010202019F3F3F3F3F9F36
:102A5000000000002040404040867C7848784E7C52
:102A6000000000010202020202011FBF3F3FBF1F20
:102A7000000000002040404040807E7C48784E7C32
:102A8000000000000304040402011FBF3F3FBF1FFA
:102A9000000000000030202040807E7C487A4E7C80
:102AA0000000000E0101010202011FBF3F3FBF1FD6
:102AB000000000007C4E7A487C7E804040404020F0
:102AC000000000001FBF3F3F3F9F010202020202C1
:102AD000010000007C4E7848787C86402020300041
:102AE000000000009F3F3F3F3F9F010202010101A4
:102AF0000E0000007C4E7A487C7E804040404020A2
:102B0000000000001FBF3F3FBF1F01020202020280
:102B1000010000007C4E78487C7E80404040402090
:102B2000000000001FBF3F3FBF1F01020404040359
:102B3000000000007C4E7848787C864020203000E1
:102B4000000000001FBF3F3FBF1F01020201010143
:102B50000E0000000000007C4E7C4C7E7CA010002B
:102B6000C00000000000001F3FBF3FBF1F00010169
:102B7000000000000000007C4E7C4C7E7C90605089
:102B8000102000000000001FBF3F3F3F9F000000DB
:102B9000000000000000007C4E7C4C7E7CA01000F9
:102BA000C00000000000001FBF3F3FBF1F00010129
:102BB000000000000000007C4E7C4C7E7C90504069
:102BC000808000000000001FBF3F3FBF1F000000CB
:102BD000000000000000007C4E7C4C7E7C90605029
:102BE000102000000000001FBF3F3FBF1F0000007B
:102BF000000000000040807CFE7C7CFE7C00000029
:102C0000000000030404021C3DBA3BBC1F0000008E
:102C10000000402020C0007CFE7C7CFE7C00000088
:102C2000000000000008051ABA3B3D3C9F00000070
:102C3000000000000040807CFE7C7CFE7C000000E8
:102C4000000000030404021CBD3A3BBC1F0000004E
:102C5000000000000000007CFE7C7CFE7C00000088
:102C6000000000020301021FBC3E3DBC1F0000002B
:102C70000000402020C0007CFE7C7CFE7C00000028
:102C8000000000000008051ABA3B3DBC1F00000010
:102C900000007A2A7B021A437A7D457D577D457D67
:102CA000403F0B6B7F6B0B54134D07520F52493A49
:102CB00040626B6B6250571D171D5750047F445F75
:102CC000545F44205F351F751F2052521E1F1E5235
:102CD000521111097F010911357F62355F5D6A4626
:102CE00032467F565246423E057D4F5C647F1B5CF8
:102CF000365D365C0A6E7F6A677D053E2A3E6A2F26
:102D00007A2849386A5F407F6A493A40786F497F3C
:102D100008080808080C08486A5F6A3F427E40407D
:102D2000407F444440120A7F2A2A7A02535A3F7A4B
:102D30003F5A5342221A0702427E127A07027F52FA
:102D40006A06735E7B5E7306542B5573142D5324F1
:102D50003F4E7E5B7E4E127B367E5A2F5E75482E2E
:102D60005F7C235E750004765E7504126964097FDA
:102D7000011F1A2E3A7B7A6E5A553E7A5F4A5F7A65
:102D8000497D2B5E7D2F50777D573F007F4A493824
:102D9000447F6A7F6A484A6A5F4A2A484C4B3A0F26
:102DA0007A4A68442B1E2A7E427E506A7A6F7A6E77
:102DB000541C0B7E7C6B6E1A725E7B367F7E4B7F63
:102DC0002B7B287B2B7F047E7F756F757F047E01B4
:102DD0005F55555F20521B56175C7014567E155F69
:102DE0002455047E7F0700477F571F57705F547438
:102DF0001F155F201F557F704E487F484E70777DAE
:102E000057106A656B6B3E6A3E6A3E6A6A6B743243
:102E10007536744437457D5557440979555F51756A
:102E2000097F2D7F2D5D175D682A5E5B7E0A68280D
:102E30001A6F6A7F251B047C565D567C04493A4014
:102E40007E6B6A7E117F151F557F11710044231E12
:102E500022467D6F7D48577D57524E327F324E520B
:102E60000C7F3A2F7A3F5E5252377E5F7612403F98
:102E7000157F15557F403C542C5F7A4A3E2B3E040B
:102E80000B527E124E5B365B750B423F427E7E429A
:102E90007E067F484A3F4E48404C201F2844407AD7
:102EA0002A1E6B7A2E7A7500486A5F2A482D7F2D7C
:102EB000723576747F415D555D417F7F65554F5515
:102EC000657F0A6E6B0E7F251B48442B184B7C08D0
:102ED000527F0A445F2455495D3B2D0E407F423DA1
:102EE0005F7C2D7B2F7500484A3F4E4842221E0BC7
:102EF0004A7A02565A3E7B365A5649387D557D5796
:102F00007D75007D1417547D2A7F2A2A7E555435FD
:102F10007E097A2F7A08127B3E2A7F2A3E445F552B
:102F20007D555F44565A56335E5A560937313E5ADC
:102F30002F5E485A3F2A0A527F567D365D14175D30
:102F40002818457D1028444938645E775E64501720
:102F50001D77150F505157755F355751243F087E27
:102F6000445F6C047E231A7F1A22603E5A5B7A1EED
:102F700060224E7B2E443F457D554F455F557D5524
:102F800030586E5D7E58553F557F007F1B243F5E55
:102F90002A7F6A5E11097F494979012D352D401D2F
:102FA000175D523E7A5F3A5E52482A4A7F5A5A4823
:102FB0005D7F5D423F427E1A7F422E7F2E42413F1F
:102FC00055355D77110809497D0B09087F05070014
:102FD00007457F7500445B295D4749371D017F49DF
:102FE000653A2F3A403F557F7F01755575017F2A1D
:102FF000757F6A5D6A5D2A754E3E3B3E4E4E181FD8
:103000007A100F5A023E555D575C60047E235E7D48
:103010002F507E137E405B295B177F286A2F7A280A
:10302000642B7F2A6E007F4C3F205C646F4A127ACB
:10303000474A7E4A4252521F1A1F5252047E097E4C
:10304000445F6C405F3515755F60137A527B4E3A72
:103050005B147B062C4B7E0A42422E132E42426AA0
:103060006B367E5B3E56063A52534A4A664C3F5C8C
:103070003E177E5C445C372C7E427E505F357F3548
:103080005F5040201807182040425A1A425F2253CE
:103090006A6B14137E1210011D151D417F01201F44
:1030A0005042243F407F557F145D7F554C463D2E56
:1030B0007D476C027A5B5E5A7B026A63286A2F7ACC
:1030C00028357F445E7E5D4452522D5D7F2C5049F1
:1030D0003F097F094A256A6B147D577D1002626B98
:1030E0006B6B6202265A16531E5276202A287F28BE
:1030F0002A20207E15405B295B527F7A5F7A5F7AB7
:1031000049385A427F425B4453527F5252425B3E9F
:103110005B7F55355F082A2E7B2E2A080A7D485A88
:103120002D584C4A773F3A377F4A446358235D17FE
:103130005D4444241F244444007E4A5B5A527E244A
:103140003F257D55275C2A75280A554B08423E4B82
:103150007A022952143E773E5F295B2A75287E4AFF
:103160003E497F6D6D455F657F56522E5F762256D4
:10317000423E4B7A5C235E4938427B567B421113B8
:10318000157F151311407F551D355750403E7A5617
:103190003B5E724C3F7F2B7C2B7F5F155F055B197D
:1031A0005F403F141417740424157F157E427E225D
:1031B0001A7F0A7F557F047E115F48225F5A553E71
:1031C0007B3E5A55792F6F794E7B6E4970343B3672
:1031D0007A4675403F214D7F2D7F251B7F55355FFA
:1031E0005A5F3A5F7F7E4B403E5A265B5E766A6B43
:1031F000004A562B52525A3E7B365A520A7D44336D
:10320000447B544C4B2A1F2A4A486A6B44557E54CF
:10321000442A2E6A7F2A3E12223E125D17155D282F
:103220001A7E5E5D7D0879413F295C235E403E1237
:103230007E2B4A7E7F251B7E09427F403F577B3F86
:103240004B7F553B40557F5752545B36643B5E5233
:1032500072127E5B7E12722A75215F51275C282ACA
:103260001A3F2E2A696A6B5474573C453D253744F2
:103270005F225E223A2F7A2F3A22047E0114137FB6
:1032800012047E011D155D7F0A7D286A2F7A28545D
:10329000523F7A3F5A500C777F5E6F6E5F553F0901
:1032A0007F093B540A4A3E09087F0824157F150E02
:1032B000407F357E437E635E4275403E6A6A3F5280
:1032C0004846503F201204007E222222227E407C6B
:1032D0002F2D2F7C406A63087A2F7A0824134E2200
:1032E0001E427E7C5C6F5A443F5524144C7F081468
:1032F00022553B775136505F2A7548395A755B42E3
:103300004E2A7F2A4E42427E3535377C4075000C6E
:103310006B6F6A084037457D55574075007D6F6576
:103320006F7D00000000002F000300033F123F16D6
:103330003F1A120824323D2A020100003E41413E5C
:10334000000A070A083E084020000808080020007C
:103350001008041C2A1C243E20322A24222A141875
:10336000143E2E2A121C2A12023A06142A14242A67
:103370001C002400402400081422141414221408F1
:1033800002290612291E3E093E3F251A1E21213F11
:10339000211E3F25213F05011E21393F083F213FC6
:1033A0002110201F3F043B3F20203F063F3F013EAE
:1033B0001E211E3F09061E215E3F093622251901E6
:1033C0003F013F203F3F100F3F183F330C33033C7A
:1033D00003312D23007F41153E15417F000201027C
:1033E00040404000010218243C3F241818242418AF
:1033F000243F182C2C043F0548543C3F0438003D22
:1034000000403D003F0834013F003C1C383C04387C
:103410001824187C241818247C3C0804283C140424
:103420003E243C203C3C100C3C303C2418244C50A6
:103430003C24342C083641007F004136080101014C
:103440001028101F010120203E102000000800005D
:10345000CD3111241FBECFEFDAE0DEBFCDBF12E0C9
:10346000A0E0B1E0E6EFFAE602C005900D92AA3DB9
:10347000B107D9F727E0AAEDB2E001C01D92AB3841
:10348000B207E1F71AE1C9E2DAE104C02197FE01CF
:103490000E946733C832D107C9F70E94F22E0C94FC
:1034A00079350C9400005F926F927F928F929F9279
:1034B000AF92BF92CF92DF92EF92FF920F931F9342
:1034C000CF93DF936C015B014A013901E12CF12CB0
:1034D00055245A94500E1E2DC0E0D0E0C038D105BE
:1034E00049F18C2F81278C2B80FD22C0CC15DD0566
:1034F000FCF08C169D06E4F0EA14FB04CCF06E148C
:103500007F04B4F041E050E0023010F440E050E0BD
:103510004E0D5F1D61E070E081E0851510F460E004
:1035200070E06C0F7D1F20E087E197E00E94E028AB
:103530002196D4CF9FEFE91AF90A80E4E816F10446
:1035400051F6DF91CF911F910F91FF90EF90DF9097
:10355000CF90BF90AF909F908F907F906F905F9033
:1035600008952F923F924F925F926F927F928F9227
:103570009F92AF92BF92CF92DF92EF92FF920F9302
:103580001F93CF93DF936C015B01122FC42FD0E008
:1035900081E090E04C018C1A9D0A662477246C1A15
:1035A0007D0A660C771C6FEF70E080E090E00E946F
:1035B000A226202E312C412C512C62157305840536
:1035C00095054CF0212FA5014C0F5D1FB60187E139
:1035D00097E00E94E0286FEF70E080E090E00E94AA
:1035E000A22662157305840595054CF0212FA501CF
:1035F0004C1B5D0BB60187E197E00E94E0286FEF5E
:1036000070E080E090E00E94A226621573058405B8
:1036100095054CF0212FA501B6016C0F7D1F87E1A8
:1036200097E00E94E0286FEF70E080E090E00E9459
:10363000A22662157305840595054CF0212FA5017E
:10364000B6016C1B7D0B87E197E00E94E028E12C1E
:10365000F12CEC16FD060CF0C3C097FC06C02197B8
:1036600082E0680E711C860C971C8FEFE81AF80A2E
:10367000C701880F991F0196880E991E6FEF70E0A1
:1036800080E090E00E94A2266215730584059505EE
:103690005CF0212FA5014C0F5D1FB7016C0D7D1D46
:1036A00087E197E00E94E0286FEF70E080E090E013
:1036B0000E94A22662157305840595055CF0212FF2
:1036C000A5014C0F5D1FB6016E197F0987E197E0D8
:1036D0000E94E0286FEF70E080E090E00E94A22658
:1036E00062157305840595055CF0212FA5014C1B1F
:1036F0005D0BB7016C0D7D1D87E197E00E94E0280E
:103700006FEF70E080E090E00E94A22662157305E2
:10371000840595055CF0212FA5014C1B5D0BB601BE
:103720006E197F0987E197E00E94E0286FEF70E053
:1037300080E090E00E94A22662157305840595053D
:103740005CF0212FA7014A0D5B1DB6016C0F7D1F98
:1037500087E197E00E94E0286FEF70E080E090E062
:103760000E94A22662157305840595055CF0212F41
:10377000A7014A0D5B1DB6016C1B7D0B87E197E02D
:103780000E94E0286FEF70E080E090E00E94A226A7
:1037900062157305840595055CF0212FA5014E196E
:1037A0005F09B6016C0F7D1F87E197E00E94E0285A
:1037B0006FEF70E080E090E00E94A2266215730532
:1037C000840595050CF445CF212FA5014E195F09FD
:1037D000B6016C1B7D0B87E197E00E94E02839CF92
:1037E000DF91CF911F910F91FF90EF90DF90CF90DD
:1037F000BF90AF909F908F907F906F905F904F9011
:103800003F902F9008954F925F926F927F928F9288
:103810009F92AF92BF92CF92DF92EF92FF920F935F
:103820001F93CF93DF93CDB7DEB728970FB6F894E9
:10383000DEBF0FBECDBF809103019091040197FDC3
:103840000F969C0104E0359527950A95E1F72093A2
:10385000DF02809105019091060197FD0F9614E01B
:10386000959587951A95E1F78093DE023327A90194
:10387000445051095A8349832B5F3F4F3C832B832C
:1038800099279C01225031093E832D830396988706
:103890008F8357FF07C081EF489F402D112440932D
:1038A000DD0202C01092DD0237FF07C081EF289FC2
:1038B000202D11242093DC0202C01092DC028091A2
:1038C000DD028093DB028091DC028093DA02FE014C
:1038D00031969E01275F3F4F4FE050E080819181FC
:1038E00097FF03C01182108204C0409714F05183E7
:1038F00040833296E217F30789F7FD80B0EF8B2EF5
:10390000AF2CB12C8F8198858A159B050CF4D2C001
:103910009980892D90E02B813C81281739070CF480
:10392000BEC02091DF02C0900301289DC00C11246D
:103930002091DE0200910501289D000D11242091A7
:10394000E102F50130E1239FE00DF11D1124A4E017
:10395000EE0FFF1FAA95E1F7E80FF91FE155F54FAC
:10396000949110E0D12C9C3189F16091DA02809120
:10397000DB029D31A8F4913009F444C0923009F083
:1039800073C040901103512C612C712C7594679475
:10399000579447949FEF491A590A690A790A2BC02C
:1039A0009E3281F19333D1F1923209F05DC04090A3
:1039B0001103512C612C712C759467945794479482
:1039C00031E2430E511C611C711C15C06DE370E0A7
:1039D00080E090E00E94A226660F771FFB01E55B66
:1039E000FE4F408151816091DA0270E0601B710BE3
:1039F0008091DB0244C09201220F331FF901E55B85
:103A0000FE4F38C070E0601B710B90E001E020E1D8
:103A100040E18C199D090E94E62C3AC0662E712C5B
:103A2000601A710A482E512C4C185D0801E020E103
:103A300040E1B301C2010E94E62CB3016E5F7F4FEB
:103A40008091DB026034710528F490E08C199D09A7
:103A50000E94852CB3016C5F7F4F60347105C0F408
:103A6000C2010E94852C14C0E491F0E0EE0FFF1F0C
:103A7000E75BFE4F4081518170E0601B710B90E06D
:103A8000EE24E39400E120E18C199D090E94732744
:103A90008091DB02805F8093DB0293943ACF809128
:103AA000DD028093DB028091DA02805F8093DA028C
:103AB000F39426CF28960FB6F894DEBF0FBECDBF85
:103AC000DF91CF911F910F91FF90EF90DF90CF90FA
:103AD000BF90AF909F908F907F906F905F904F902E
:103AE00008952F923F924F925F926F927F928F92A2
:103AF0009F92AF92BF92CF92DF92EF92FF920F937D
:103B00001F93CF93DF93CDB7DEB72A970FB6F89404
:103B1000DEBF0FBECDBF5C017A8769874D839B01F5
:103B2000295F3F4F3C832B834C0137E0830E911C70
:103B300021E04FE0C4010E94BA2CE984FA8486E0B7
:103B4000E80EF11CCC24C394D12C412C512C07E05D
:103B500010E022EF3FEF3A8329832AEF622E772489
:103B60007A94C50129853A85821B930B9F838E83A6
:103B70002FEF421A520A32E0C30ED11C6C0C7D1C8E
:103B8000202E220C31E0320DC201079621E0432F96
:103B90002B803C80201A310AB1018A0D9B1D388789
:103BA0000E94BA2C21E04C2DB701C401800F911F57
:103BB0000E94BA2C21E03885432FB1018E819F816C
:103BC0008E0D9F1D0E94BA2C21E04C2DB701C4011F
:103BD000801B910B0E94BA2C401651067CF477FC96
:103BE00009C00150110989819A8102969A838983BB
:103BF000680E791E91E0E91AF108BACF00E020E0E2
:103C000047E06B817C81C4010E94B11A3D81E32FA2
:103C1000F0E0EE0FFF1FE95DFE4F408151816985A5
:103C20007A856D5F7F4FE12C08E028E0C50104969E
:103C30000E9473272A960FB6F894DEBF0FBECDBF41
:103C4000DF91CF911F910F91FF90EF90DF90CF9078
:103C5000BF90AF909F908F907F906F905F904F90AC
:103C60003F902F9008951F93CF93DF93C82FD0E0FC
:103C7000CE010E94092A182FCE0101960E94092A1E
:103C8000C82F61E070E080E090E00E94C626812F9E
:103C90009C2FDF91CF911F910895CF93DF93C0E0C8
:103CA000D0E0FE01E453FE4D6491CE010E94ED2967
:103CB0002196C530D105A9F76091020185E090E019
:103CC0000E94ED29609103017091040186E00E9439
:103CD0000B2A609105017091060188E00E940B2A71
:103CE0006091E1028AE090E0DF91CF910C94ED29A0
:103CF000CF93DF9380911C01813079F038F08230CE
:103D0000B9F08330F9F481E090E014C01092E5023C
:103D10001092E4028FEF9FEF06C01092E50210921E
:103D2000E40281E090E09093E3028093E2020AC013
:103D30008FEF9FEF9093E5028093E4021092E302ED
:103D40001092E20281E08093E602E0910301F0919B
:103D500004014091E4025091E502BF01640F751F18
:103D6000673F710570F4A0910501B09106012091A3
:103D7000E2023091E302CD01820F931F873F91054C
:103D800018F01092E60265C0EF01F7FD2F966894D7
:103D900013F8D595C7951694E1F7689413F87595BF
:103DA00067951694E1F7C617D707A1F16091E10274
:103DB000C3E0440F551FCA95E1F7E40FF51FF7FD67
:103DC0003F9644E0F595E7954A95E1F780E1689FD5
:103DD000A001112473E0220F331F7A95E1F7CD0182
:103DE000820F931F97FD0F9624E0959587952A954E
:103DF000E1F7840F951F34E0880F991F3A95E1F79A
:103E0000E80FF91FE155F54FA7ECB1E091E02AE288
:103E10002A0F14C0BD01B7FF02C0615F7F4FC4E02D
:103E200075956795CA95E1F7D4E095958795DA95EC
:103E3000E1F76817790709F0B9CF0BC084913D917C
:103E4000831303C0653F08F490E02A13F7CF9093E3
:103E5000E602DF91CF9108950F931F930E940027F0
:103E60000091010310910203209103033091040398
:103E70000C5E1F4F2F4F3F4F60177107820793074C
:103E800008F440C00E94002760930103709302036E
:103E900080930303909304038FEF80930F010E949C
:103EA0005B2787FD10920F010E945B2784FF03C0F0
:103EB00081E080930F010E945B2785FF03C082E0B1
:103EC00080930F010E945B2786FF03C083E08093ED
:103ED0000F010E945B2783FF03C084E080930F01E2
:103EE0000E945B2782FF03C085E080930F010E9440
:103EF0005B2783FF07C00E945B2782FF03C086E029
:103F000080930F011F910F9108958F929F92AF920E
:103F1000BF92CF92DF92EF92FF920F931F93CF93B6
:103F2000DF93082FC1E3D0E0C12CD12C760187EEBE
:103F3000882E99249A94A92CB92C011127C00E948B
:103F4000E42D0E94031C0E94082D109102011150C3
:103F5000C701B601A50194010E94A532DA01C90189
:103F6000412FBE010E94711D87E197E00E946327E7
:103F700087E0C81AD108E108F108219781E5C81641
:103F80008FEFD806E806F806C1F606C00E942C1F7F
:103F900090910F01953099F2DF91CF911F910F9180
:103FA000FF90EF90DF90CF90BF90AF909F908F9059
:103FB0000895AF92BF92CF92DF92EF92FF920F934C
:103FC000CF93DF93D82F20910201082E000C990B7C
:103FD000820F911D01970A9718F42D0F209302016B
:103FE000CEE0DC9FC02D112489EFA82EBB24BA940B
:103FF0000E94E42D0E94031C0E94082D6501CC1A2A
:10400000D108C7FDD394E12CF12C40910201842FFB
:1040100090E001968E199F090A97B0F44F5F4E19F0
:10402000B60188E090E00E94711D82E0E816F1047C
:1040300059F001E09601225F3F4F46E150E0B601A2
:1040400088E090E00E94531A8FEFE81AF80A8FE098
:10405000C80ED11C86E0E816F104B9F640911103B0
:10406000465F00E021E06EE170E08FE090E00E94AA
:10407000B11A40911103455F20E06EE170E08FE0DE
:1040800090E00E94B11A40911103445F21E06EE17B
:1040900070E08FE090E00E94B11A87E197E00E9403
:1040A0006327D7FF02C0CF5F02C0D111C150C11139
:1040B0009FCFDF91CF910F91FF90EF90DF90CF9046
:1040C000BF90AF9008950F93CF93C0E00C2F20E4E2
:1040D00030E04FE750E060E070E080E090E00E9468
:1040E000531A87E197E00E9463276AEF70E080E04F
:1040F00090E00E94C626CF5FC43041F7CF910F9168
:1041000008958F929F92AF92BF92CF92DF92EF92DB
:10411000FF920F931F93CF93DF930E94E42D0E9491
:10412000031C0E94082D8091E10290E020910D0176
:1041300030910E018217930709F07CC08091E00254
:10414000882309F477C0809105019091060197FDBD
:10415000019695958795E0900B01F0900C01E81A77
:10416000F90A809103019091040197FD01969595BC
:104170008795C0900901D0900A01C81AD90AC1E0F8
:10418000AA24AA94B12C90910001C91780F4692F38
:1041900070E0C5010E943F33C69F002D112420E02E
:1041A0004C2FB701C6010E94B11ACF5FECCF20910E
:1041B00003013091040137FF02C0215F3F4FA90185
:1041C000A4E055954795AA95E1F74093DF02209129
:1041D00005013091060137FF02C0215F3F4FF4E037
:1041E00035952795FA95E1F72093DE026091090154
:1041F00070910A0177FF02C0615F7F4FE4E075951F
:104200006795EA95E1F746175707A1F440910B012E
:1042100050910C0157FF02C0415F5F4F74E055950C
:1042200047957A95E1F72417350721F464E0690F83
:104230006093000180910101882349F040910201BF
:10424000415061E370E080E090E00E94711D809138
:1042500003019091040197FD0F9664E09595879571
:104260006A95E1F78093DF02809105019091060144
:1042700097FD0F9634E0959587953A95E1F78093F1
:10428000DE0208ED11E2CBE4D9E04DE5C42E48E0B2
:10429000D42E57EDE52E51E2F52EFE013197E49133
:1042A0008091E102E81318C0F60131979491809152
:1042B0001C01981719F0E491EF3F71F4F80133975E
:1042C000E4918091DF02E81307C0F8013297E4918E
:1042D0008091DE02E817E9F00C5F1F4F2396F2E0B1
:1042E000CF0ED11C24E0E20EF11C8AE0C03BD807BF
:1042F000A1F687E197E0DF91CF911F910F91FF9099
:10430000EF90DF90CF90BF90AF909F908F900C94E4
:104310006327FE013196E491E13009F045C00E9427
:104320002C1F0E9400278090050390900603A09008
:104330000703B0900803F6E98F0E911CA11CB11C75
:10434000681579058A059B0508F46CC080910F01FA
:10435000843009F067C0F6018491882309F462C0B3
:10436000F701B490FE01849190E00B960E94092A17
:10437000F801249190E08B0D911D30E0281739074A
:104380000CF050C0FE01849190E060E00B960E941A
:10439000ED290E9400276093050370930603809324
:1043A00007039093080398CFE13048F5F601449154
:1043B000F80184918295807FF70124912295207FD6
:1043C000FE0194919093E102922F92959F709093A9
:1043D000DF02982F92959F709093DE0230E0309329
:1043E00004012093030190E090930601809305015E
:1043F00040931C010E9463200E944D1E6DCFE2304D
:1044000009F06ACFF801849190E081589F4F0E9493
:10441000092A882309F458C0F6018491813009F0F3
:104420005BCF52C0F701B490FE01849190E00B96EF
:104430000E94092A8B0DF8019491981708F44CCF2B
:1044400090E0FC01EF54FC4D6491880F991FDC0152
:10445000AF50BE4F8D919C910E94F72D0E94002776
:104460008090050390900603A0900703B090080386
:10447000F6E98F0E911CA11CB11C681579058A05FF
:104480009B0508F429CF0E940027609305037093D1
:10449000060380930703909308030E942C1F8091CA
:1044A0000F01843009F018CFFE01849190E00B9643
:1044B0000E94092AFE01949161E0680F892F90E023
:1044C0000B960E94ED2908CFF701B490FE0184916C
:1044D000811101C0B194F801849190E061E08158AC
:1044E0009F4F0E94ED2980E00E94851F8B2D0E9426
:1044F000D91F80E00E94D91F0E944D1E68EE73E014
:1045000080E090E00E94C626E7CEFC018485958578
:1045100097FD0BC09FB7F89482E08093E9008091EB
:10452000F2009FBF90E0019608959FB7F89482E053
:104530008093E9008091F2009FBF90E00895409140
:10454000EC025091ED022091EA023091EB02421709
:104550005307B4F49091E8009570E1F39091E8006E
:1045600092FD19C08093F1008091EC029091ED02D0
:1045700001968F739927892B19F48EEF8093E800A9
:104580008091EC029091ED0201969093ED02809360
:10459000EC0281E0089580E00895CF92DF92EF92DF
:1045A000FF920F931F93CF93DF931F92CDB7DEB788
:1045B000182F062FE42E862F880F8E5F99830E9476
:1045C0009F2283E00E949F22F12EC12E9981D92E35
:1045D0008C2D8F19801798F4F601E7FE02C08491A4
:1045E00001C080810E949F22182F80E00E949F229C
:1045F0008123FFEFCF1ADF0A8111EACF01C081E0EA
:104600000F90DF91CF911F910F91FF90EF90DF906E
:10461000CF900895DF92EF92FF920F931F93CF9365
:10462000DF93D82E8A017B01E40EF51EEB01CE1537
:10463000DF0571F0D7FE03C0FE01849101C08881BF
:104640000E949F2221968111F2CF8FEF9FEF01C030
:10465000C801DF91CF911F910F91FF90EF90DF90F4
:104660000895615030F02091F100FC012083019603
:10467000F8CF289884E68093FB0208950F931F9348
:10468000CF93DF931F92CDB7DEB782E0898342E4F8
:1046900050E06CEE73E280E80E940A230E94DE2E56
:1046A000DC0112960D911C9113970115110569F00B
:1046B000D801ED91FC910280F381E02DBE016F5F86
:1046C0007F4FC801099597FF07C089810F90DF913F
:1046D000CF911F910F910895F80100851185E5CFC5
:1046E0000E9464351F920F920FB60F9211248F9380
:1046F0009F938091E1009091E100937F9093E1007E
:1047000083FF0FC01092E90091E09093EB001092AC
:10471000EC0092E39093ED001092FC0298E09093ED
:10472000F00082FF20C093E09093E9009091F200A6
:10473000992319F09AE39093E8009091F902992354
:1047400039F09091F90291509093F902992389F1EF
:104750009091FB02992339F09091FB029150909334
:10476000FB02992341F184FF10C08091E2008E7E0C
:1047700081608093E2008091E1008F7E8093E10070
:104780008091FA028E7E806111C080FF16C08091F8
:10479000E2008E7E80618093E2008091E1008E7E57
:1047A0008093E1008091FA028E7E81608093FA020C
:1047B00004C05D9ACDCF289AD6CF9F918F910F904C
:1047C0000FBE0F901F9018951F920F920FB60F9269
:1047D0001124CF92DF92EF92FF920F931F932F93AA
:1047E0003F934F935F936F937F938F939F93AF9379
:1047F000BF93EF93FF93CF93DF93CDB7DEB76C9763
:10480000DEBFCDBF1092E9008091E80083FFEDC1CB
:1048100068E0CE0145960E94312382EF8093E80044
:104820008D8987FF05C09091E80090FFFCCF03C001
:104830009EEF9093E800982F907609F0C6C09E896D
:104840002F89188D91110CC0803829F48091EF02C6
:104850008093F10002C01092F1001092F10048C163
:10486000422F50E0512B913051F4811141C1413020
:10487000510509F03DC18091EF028D7F0BC093304F
:1048800061F4811135C14130510509F031C1809188
:10489000EF0282608093EF022BC1953041F480914A
:1048A000E80080FFFCCF20682093E30021C1963010
:1048B00009F05FC0EB8CFC8C1092E9001092ED02C5
:1048C0001092EC02123091F51092EB021092EA0273
:1048D0000E943E2399E0BE016F5F7F4FDB01E92F0D
:1048E0001D92EA95E9F799831A8391E09E8390EAF5
:1048F00098879AEF99872091EC023091ED02275F1B
:104900003F4F3C832B838D831092E9001092ED0280
:104910001092EC02F092EB02E092EA0249E050E0E1
:1049200080E00E940A230E943E23E2C0F092EB0244
:10493000E092EA020E94DE2EDC011296ED90FC90DD
:104940001397E114F10409F4C0C0D701ED91FC9173
:104950000480F581E02DBE016B5E7F4FC701099594
:10496000009719F00CF0C4C0C7C0F701E084F184CF
:10497000E8CF973009F4C0C0983021F481E08093EB
:10498000F100B6C0993009F0B3C0837009F0B4C02B
:10499000E8E6F2E081E021E036E39081992361F0DE
:1049A0008093E9002093EB0091919093EC00309379
:1049B000ED008F5F873089F78EE78093EA001092D1
:1049C000EA008F898093FC0293C08B8D9C8D10929E
:1049D000E9001092ED021092EC029093EB028093AA
:1049E000EA02898D811156C08E899D89913A59F4C8
:1049F000813209F081C047E050E064E171E080E07D
:104A00000E940A2375C0913209F076C0833289F47E
:104A1000888D90E0982F88272F89822BA0E0B0E026
:104A20008093100190931101A0931201B093130190
:104A30005FC0803269F48091E80082FFFCCF67E0BC
:104A400084E191E00E9431238BEF8093E80006C05F
:104A5000823209F04DC08F8980931B018091EE0254
:104A6000882319F0EEEFFAE002C0E0E0F8E0809170
:104A7000140190911501A0911601B0911701803B8E
:104A80009440A105B10509F07BC080911B0180FF16
:104A900093C076C00E94DE2EDC0112960D911C910F
:104AA00013970115110541F1D801ED91FC91019089
:104AB000F081E02DBE016B5E7F4FC8010995811129
:104AC00017C0F80100851185ECCF113009F44EC0F4
:104AD000133091F48F89882309F445C0823081F422
:104AE00040E867E080E594E20E94CD22882321F02F
:104AF0008EEF8093E80079C081E28093EB0075C06F
:104B0000813029F440E86BE084E494E2EDCF833017
:104B100099F70E94DE2EDC011296ED90FC9013971F
:104B20008E010F5F1F4F6801E114F10479F0D70186
:104B3000ED91FC910680F781E02DB801C701099540
:104B4000080F111DF701E084F184EECFD8011C920B
:104B5000F60101900020E9F73197BF016C197D093A
:104B600040E0C601C1CF6EE274E202C062E374E2CB
:104B70006115710509F2FB01449150E080E840CFD6
:104B80000FB6F894A89580916000886180936000CA
:104B9000109260000FBEA895EE3F2AE0F20739F0B0
:104BA0008091FE0A9091FF0A91838083A1CF109299
:104BB000FF0A1092FE0A9CCFEE3F8AE0F80731F020
:104BC000808191819093FF0A8093FE0A87E797E79F
:104BD000918380839BE088E10FB6F894A895809339
:104BE00060000FBE9093600083CF6C960FB6F89470
:104BF000DEBF0FBECDBFDF91CF91FF91EF91BF918F
:104C0000AF919F918F917F916F915F914F913F9164
:104C10002F911F910F91FF90EF90DF90CF900F9009
:104C20000FBE0F901F901895CF92DF92EF92FF92D8
:104C30000F931F93CF93DF936C017A018B01C0E038
:104C4000D0E0CE15DF0589F0D8016D918D01D60138
:104C5000ED91FC910190F081E02DC6010995892B21
:104C600011F47E0102C02196ECCFC701DF91CF91F4
:104C70001F910F91FF90EF90DF90CF9008953FB775
:104C8000F8948091F5029091F602A091F702B0910C
:104C9000F80226B5A89B05C02F3F19F00196A11D6B
:104CA000B11D3FBFBA2FA92F982F8827820F911DC2
:104CB000A11DB11DBC01CD0142E0660F771F881F09
:104CC000991F4A95D1F708950895089580E090E0DE
:104CD00008950F931F93CF93DF93EC0188819981FF
:104CE000009729F02A813B812617370788F48B012A
:104CF0006F5F7F4F0E949A34009761F09983888399
:104D00001B830A832C813D81232B11F4FC0110822B
:104D100081E001C080E0DF91CF911F910F91089554
:104D2000CF93DF93EC0188819981009711F00E9465
:104D30000234198218821D821C821B821A82DF9122
:104D4000CF910895CF93DF9300D000D0CDB7DEB7D9
:104D5000611571058105910579F09B01AC016983AD
:104D60003A834B835C830E944C3229813A814B8188
:104D70005C810E94A53203C060E070E0CB010F901F
:104D80000F900F900F90DF91CF9108958F929F9287
:104D9000AF92BF92CF92DF92EF92FF926B017C01B4
:104DA0000E943F264B015C01C114D104E104F104CF
:104DB000F1F00E943F26DC01CB0188199909AA096C
:104DC000BB09883E9340A105B10570F321E0C21AEA
:104DD000D108E108F10888EE880E83E0981EA11C36
:104DE000B11CC114D104E104F10419F7DDCFFF9027
:104DF000EF90DF90CF90BF90AF909F908F900895ED
:104E00002FB7F8946091F1027091F2028091F30251
:104E10009091F4022FBF08951F920F920FB60F9238
:104E200011242F933F938F939F93AF93BF938091C0
:104E3000F1029091F202A091F302B091F40230914C
:104E4000F00223E0230F2D3720F40196A11DB11DA0
:104E500005C026E8230F0296A11DB11D2093F00284
:104E60008093F1029093F202A093F302B093F402C4
:104E70008091F5029091F602A091F702B091F802AC
:104E80000196A11DB11D8093F5029093F602A093A7
:104E9000F702B093F802BF91AF919F918F913F912C
:104EA0002F910F900FBE0F901F901895BC0180E0BE
:104EB00090E00C94C6268FB18095807F669B8860B9
:104EC0001C9B84600895E3E1F3E080E0A0E0B8E09B
:104ED00000800EBC8111012C1197A0FDFDCF019225
:104EE000B9F70DB408952F923F924F925F926F924F
:104EF0007F928F929F92AF92BF92CF92DF92EF926A
:104F0000FF920F931F93CF93DF93CDB7DEB72D970B
:104F10000FB6F894DEBF0FBECDBFED82E22EF12CAE
:104F20009C012E0D3F1D37FD32C1803891050CF0DC
:104F30002EC19B01200F311D37FD29C16034710541
:104F40000CF025C1DB0177FF04C0AA27BB27A61BF5
:104F5000B70BA770BB279B0177FF02C0295F3F4FAC
:104F600013E0359527951A95E1F777FF08C0215092
:104F7000310968E070E0FB01EA1BFB0BDF01E02F69
:104F8000E695E695E695CE2ED12C077019F0FFEF49
:104F9000CF1ADF0AB9017695762F66277795679540
:104FA000680F791F6D5E7C4F8601020F131F1987F2
:104FB0000887C12CD12CF8E0AF2EB12C85010A1B3B
:104FC0001B0B1F830E83088519852017310709F4F1
:104FD000DEC02830310509F4DAC02F3F1FEF31075A
:104FE0000CF4CAC08B0100581F4F1D870C874B0162
:104FF0003B012B011C011C830B831A8309831B8635
:105000001A860A851B850E151F050CF0B5C010E821
:105010002116310409F4B0C037FC89C02F3FEFEFEF
:105020003E0709F4B0C00A851B850C0D1D1DFD81CE
:10503000F13079F4F801E40FF51FE491F0E08F010D
:105040000A2E01C0000F0A94EAF7F301B0800B2981
:1050500025C0FD81F11114C0F801E40FF51FE491A2
:10506000F0E00A2E02C0EE0FFF1F0A94E2F78F0154
:1050700000951095F401A080B12C0A211B210EC0CF
:10508000F801E40FF51FE491F0E08F010A2E01C052
:10509000000F0A94EAF7F201B0800B250083109705
:1050A00009F445C02730310509F441C00A851B8544
:1050B0000C0D1D1DFD81F13089F4F801E40FF51F81
:1050C000E4910E2F10E00E8002C0159507950A940A
:1050D000E2F7EC85FD85B0800B2928C0FD81F11138
:1050E00015C0F801E40FF51FE4910E2F10E00E80BB
:1050F00002C0159507950A94E2F700951095E9818D
:10510000FA81A080B12C0A211B2110C0F801E40F04
:10511000F51FE4910E2F10E00E8002C01595079543
:105120000A94E2F7EB81FC81B0800B2500830A85AD
:105130001B850F5F1F4F1B870A870C851D850F5F1F
:105140001F4F1D870C8709811A810F5F1F4F1A831C
:1051500009830B811C810F5F1F4F1C830B831FEF83
:10516000211A310AEFEF4E1A5E0AFFEF6F1A7F0A1B
:105170000FEF801A900A45CF2F5F3F4F60587F4F47
:10518000CE0CDF1C20CF109709F090CFD0CF2D96FA
:105190000FB6F894DEBF0FBECDBFDF91CF911F9148
:1051A0000F91FF90EF90DF90CF90BF90AF909F90C6
:1051B0008F907F906F905F904F903F902F900895C9
:1051C00060387105D0F440345105B8F4EAE0F5E2F6
:1051D00080E1849FD001A0781124A60F4770E40FCE
:1051E000F11D8491AD5EBC4F222319F06C91862B8A
:1051F00003C080956C9186238C9308952F923F92E3
:105200004F925F926F927F928F929F92AF92BF92D6
:10521000CF92DF92EF92FF920F931F93CF93DF9382
:10522000CDB7DEB729970FB6F894DEBF0FBECDBF5E
:10523000FC016A3069F425898189928938E0239FCD
:10524000800D911D1124928B818B108A1786AAC024
:105250006D3009F4A7C099878887F588348823883A
:10526000618872880785108900381105C4F0A88507
:10527000B98555962C915597422F50E01F968D91E8
:105280009C915097B6E02B9F800D911D1124E885CD
:10529000F985908B8787268921116EC083C0F0E441
:1052A0006F16710424F7C80125E0F29E800D911D50
:1052B000112418161906DCF68F2D90E09C838B8341
:1052C000C301A8E0FA9E800D911D1124181619063D
:1052D00074F6B5E06B9FB0011124FB01EE5EFA4D50
:1052E000FA83E98330E08885998504969E838D83CF
:1052F000E981FA81E490353009F4E12C430188E03A
:10530000482EE0FC02C0532C01C0522C51100BC09F
:10531000321009C0E6944A948B819C81880E991EB4
:105320004110EFCF1BC068018C2D801B8F1590F7AB
:1053300054018A2D88198F1568F4252DA501B60111
:105340008D819E813F830E94E0289FEFA91AB90AB0
:105350003F81EFCFAFEFCA1ADA0AE6CF3F5FEB81AA
:10536000FC810E0F1F1F89819A8101969A83898380
:10537000363009F0BDCF7BCF6AEF64039001659FA3
:10538000300D112420583F4F281739075CF4A885A9
:10539000B985ED91FC9111970190F081E02D6AE0C3
:1053A000CD01099581E090E029960FB6F894DEBF13
:1053B0000FBECDBFDF91CF911F910F91FF90EF9066
:1053C000DF90CF90BF90AF909F908F907F906F9025
:1053D0005F904F903F902F9008950F931F93CF931E
:1053E000DF931F92CDB7DEB78C0169830E948F32A5
:1053F0006981681741F0C8010F90DF91CF911F912B
:105400000F910C9497320F90DF91CF911F910F91D4
:1054100008950C948F320F931F93CF93DF931F92B5
:10542000CDB7DEB7082F10E0C80179830E94ED29BF
:105430007981672FC80101960F90DF91CF911F915D
:105440000F910C94ED29CF93DF93CDB7DEB765971D
:105450000FB6F894DEBF0FBECDBF0E949D3187E12D
:1054600097E00E94632768EE73E080E090E00E947E
:10547000C6261092260711E01093270789EF94E2C1
:105480000E94B42E1093260710922707E12CF12CCE
:105490008E010F5F1F4FF701E453FE4D9490198A60
:1054A000188A1B8A1A8A1D8A1C8A62E070E0CE0163
:1054B00040960E946926811105C0CE0140960E9447
:1054C00090260AC082E090E09D8B8C8B64ED72E0A8
:1054D000888999890E947235C7010E94092A1B8612
:1054E0001A861D861C861F861E864AE0B80190E03B
:1054F0000E946532D8010D900020E9F711976D01E7
:10550000C01AD10AB601CE010A960E9469268111FD
:1055100005C0CE010A960E94902607C0DF86CE867F
:10552000B8018A859B850E9472352C893D89A8889F
:10553000B988CE84DF84A114B10409F4BAC021155E
:105540003105A9F0C20ED31EB601CE010A960E9403
:105550006926882309F4ADC02A853B858E859F8501
:10556000B501820F931F0E947235DF86CE864AE016
:10557000B801892D90E00E945A32F8010190002074
:10558000E9F73197E01BF10BCE84DF843097C9F047
:10559000CE0EDF1EB601CE010A960E946926882330
:1055A00061F02A853B858E859F85B801820F931F08
:1055B0000E947235DF86CE8604C0CE010A960E9414
:1055C00090264E855F856A857B8583E197E00E9402
:1055D000142642E050E067ED72E083E197E00E941C
:1055E00014268A859B850E940234888999890E94A5
:1055F00002348FEFE81AF80AE5E0EE16F10409F03C
:105600004ACF87E197E00E94632768E873E180E072
:1056100090E00E94C6260E94E42D0E949D311092C7
:10562000260781E0809327078CEE94E20E94B42E37
:1056300087E197E00E94632700E010E060E0C80186
:105640000E94ED290F5F1F4F0115F4E01F07B1F70E
:105650008FED94E20E94B42E87E197E00E946327C9
:105660000E944D1E62E085E090E00E94ED296FEB04
:1056700070E086E00E940B2A60E270E088E00E9401
:105680000B2A6BE08AE090E00E94ED2988ED94E21D
:105690000E94B42E87E197E00E9463276CED75E0CD
:1056A00080E090E00E94C62600E010E0F801099535
:1056B000FDCFCE010A960E94902659CFFC01809121
:1056C000FC02811103C08FEF9FEF08959FB7F894FC
:1056D00082E08093E9002091F20030E01216130678
:1056E00014F421E030E02115310559F0289884E6C2
:1056F0008093FB028091F10080838091F2008823E7
:1057000019F09FBFC90108958BE68093E800F9CF97
:105710002FB7F89483E08093E9009091E800892FF7
:10572000807295FF04C09091F20080E4891B2FBF26
:105730000895CF93DF931F92CDB7DEB76983DC0165
:10574000ED91FC910280F381E02D41E050E0BE013B
:105750006F5F7F4F09950F90DF91CF91089583E0A0
:105760008093E9008091F200882319F08AE3809306
:10577000E80008950E94882B90E00895CF93DF936E
:105780001F92CDB7DEB7FC018485958597FD05C0D6
:105790002FEF3FEF358724870BC0CE0101960E9483
:1057A0005E2B019719F4898190E002C08FEF9FEF83
:1057B0000F90DF91CF9108950F931F93CF93DF93B5
:1057C0001F92CDB7DEB78C01FC018485958597FFCC
:1057D0000EC0CE0101960E945E2B019719F429811B
:1057E00030E002C02FEF3FEFF80135872487F80142
:1057F000848595850F90DF91CF911F910F9108952A
:105800008F929F92AF92BF92CF92DF92EF92FF92D0
:105810000F931F93CF93DF935C016B017A0180910B
:105820001B01882309F45BC08091FC02882309F4E2
:1058300056C08091FA0280FF05C08091E00082602E
:105840008093E000E70110E00AEF83E0882E9AE3FE
:10585000992E2097D9F10E94882B81110AC00150FE
:1058600009F43DC061E070E080E090E00E94C6264F
:10587000F0CF282F30E0C217D3070CF48C2F4FB78E
:10588000F8948092E9009091E80095FF1DC0282FC0
:1058900030E0C21BD30BF601982F915020F081917C
:1058A0008093F100FACFC20ED31E112319F090920B
:1058B000E80009C08091E80085FD06C09092E800EC
:1058C00011E0209709F010E04FBFC3CF1111C3CFF3
:1058D0005D9884E68093F9021E141F0444F081E071
:1058E00090E0F5019383828380E090E001C0C701DE
:1058F000DF91CF911F910F91FF90EF90DF90CF90AC
:10590000BF90AF909F908F9008959C01215F3F4F73
:105910002F38310570F5FC0197FF02C0E0E0F0E0A0
:1059200040968138910514F080E890E08E1BAB0121
:105930004770552721E030E001C0220F4A95EAF771
:10594000209577FF02C0695F7F4F93E0759567955B
:105950009A95E1F77695762F662777956795E60F06
:10596000F71FED5EFC4F815020F0908192239193C0
:10597000FACF0895DF92EF92FF920F931F93CF9388
:10598000DF937C01D22E8B01040F111DEB0177FFF9
:105990000EC0C0E0D0E00BC0C417D5077CF42D2D9D
:1059A000AE01B70187E197E00E94E0282196A801A7
:1059B000013411058CF340E450E0EECFDF91CF913C
:1059C0001F910F91FF90EF90DF900895CF92DF929B
:1059D000EF92FF920F931F93CF93DF936B01122FE0
:1059E000EC017C01E40EF11CCE15DF0544F4202F00
:1059F000412FB601CE010E94BA2C2196F5CFDF913E
:105A0000CF911F910F91FF90EF90DF90CF9008956D
:105A10006F927F928F929F92AF92BF92CF92DF92BE
:105A2000EF92FF920F931F93CF93DF931F92CDB707
:105A3000DEB730911C0110911103612E712CE32F00
:105A4000F0E0EE0FFF1F80911203E80FF11DEE0F43
:105A5000FF1FEE0FFF1FE60DF71DEE0FFF1FE259B0
:105A6000FD4F40815181E12C00E120E167E170E0D0
:105A700087E390E039830E9473273981332309F447
:105A80006DC0323031F0333031F0313031F48DE3EC
:105A900005C08AE303C081E401C087E3E82EF12C4E
:105AA00001E022E041E06BE170E0C7010E94E62CDA
:105AB000670122E0C20ED11C22E041E06BE170E000
:105AC000C6010E94E62C0E94002780900D03909052
:105AD0000E03A0900F03B090100328E8820E23E17C
