:100000000C94A1090C94C9090C94C9090C94C90950
:100010000C94C9090C94C9090C94C9090C94C90918
:100020000C94C9090C94C9090C94960B0C94080CF7
:100030000C94C9090C94C9090C94C9090C94C909F8
:100040000C94C9090C94C9090C94C9090C94C909E8
:100050000C94C9090C94C9090C94C9090C94030F98
:100060000C94C9090C94C9090C94C9090C94C909C8
:100070000C94C9090C94C9090C94C9090C94C909B8
:100080000C94C9090C94C9090C94C9090C94C909A8
:100090000C94C9090C94C9090C94C9090C94C90998
:1000A0000C94C9090C94C9090C94C909401546154A
:1000B0004A154E155215731580158815B215E3159E
:1000C000F2150416151600127A474A7E4A42527FEC
:1000D0004A5A2F5A420A7D1A7F1A457D4C3F5B2FA0
:1000E0007B2F5B4C3F24037E2A2A0101017F0509F7
:1000F0000140201807182040047E7F0700477F7FBB
:100100002B7B287B2B7F0A556B015A2D5A704E484A
:100110007F484E70047E133E5F761A4938626B5EEC
:100120006B625015157B1109502A754A3E0B764AB1
:1001300049387D557D577D493A40786F497F011D8B
:10014000151D417F01201F5042243F40495D3B2D3A
:100150000E407F047E094A7E4908047E011D155D1C
:100160007F243F087E445F6C42221E0B4A7A026263
:100170001F7A147B26520A7D0405457D045F1F7596
:100180002A57324F403222534A464057347F082A7A
:100190004D7B063A52534A4A667A2A7B021A437AC0
:1001A0000A7D44557E5444404C201F284440504F03
:1001B000557D555744281A4F6A4F1A28403E4A3EEB
:1001C0003B3E4A527F156F7D6F157F555F207F0143
:1001D0001F445C372C6C6B6C047E2D3B294E7F6A70
:1001E0006B6204047F043E2A3E6A2F7A28423F4213
:1001F0007E7E427E493A6E5A7F5A6E286B6B1C6B2C
:100200006B28424A3E0B764A62047E2D7E007F5A5E
:100210004179417F494941527F403E1A79284844FB
:100220002B184B7C08357E437E635E420809497D6E
:100230000B09087E023A2B3A427E007F55555555F0
:100240007F1A7F51177717512E332E705F547450D9
:100250005E2B7E0A527F56523617765256403E4AE1
:100260003A423F52223E12423F427E445B2E7C2B5A
:100270002E6208080808080C08283A2E6B2E3A2827
:100280000937313E5A2F5E0A667F567F7612047F09
:10029000445F545F44205F351F751F20122F4A7F33
:1002A0005C235E6A63087A2F7A087F5B37107B379E
:1002B0007F6A6B44557E544401020408102040803C
:1002C00000000000003E5B4F5B3E3E6B4F6B3E1CF0
:1002D0003E7C3E1C183C7E3C181C577D571C1C5E07
:1002E0007F5E1C00183C1800FFE7C3E7FF001824DE
:1002F0001800FFE7DBE7FF30483A060E2629792988
:1003000026407F050507407F05253F5A3CE73C5ABC
:100310007F3E1C1C08081C1C3E7F14227F22145F99
:100320005F005F5F06097F017F006689956A6060F4
:1003300060606094A2FFA29408047E040810207EEE
:10034000201008082A1C08081C2A08081E10101073
:10035000100C1E0C1E0C30383E3830060E3E0E06B9
:10036000000000000000005F00000007000700140C
:100370007F147F14242A7F2A1223130864623649CB
:100380005620500008070300001C224100004122B3
:100390001C002A1C7F1C2A08083E080800807030B8
:1003A0000008080808080000606000201008040227
:1003B0003E5149453E00427F40007249494946212D
:1003C00041494D331814127F1027454545393C4AA1
:1003D00049493141211109073649494936464949B8
:1003E000291E000014000000403400000008142200
:1003F000411414141414004122140802015909066E
:100400003E415D594E7C1211127C7F494949363E6E
:10041000414141227F4141413E7F494949417F0954
:100420000909013E414151737F0808087F00417F5F
:1004300041002040413F017F081422417F4040405D
:10044000407F021C027F7F0408107F3E4141413EF5
:100450007F090909063E4151215E7F091929462677
:100460004949493203017F01033F4040403F1F207B
:1004700040201F3F4038403F631408146303047852
:1004800004036159494D43007F4141410204081072
:1004900020004141417F04020102044040404040AD
:1004A000000307080020545478407F28444438381B
:1004B00044444428384444287F385454541800088D
:1004C0007E090218A4A49C787F0804047800447D67
:1004D00040002040403D007F1028440000417F4004
:1004E000007C047804787C08040478384444443858
:1004F000FC1824241818242418FC7C080404084838
:100500005454542404043F44243C4040207C1C2088
:1005100040201C3C4030403C44281028444C9090E3
:10052000907C4464544C440008364100000077003D
:1005300000004136080002010204023C2623263C4A
:100540001EA1A161123A4040207A385454555921D5
:1005500055557941215454784121555478402054BF
:100560005579400C1E52721239555555593954540B
:10057000545939555454580000457C410002457D7A
:10058000420001457C40F0292429F0F0282528F07C
:100590007C545545002054547C547C0A097F4932D0
:1005A000494949323248484832324A4848303A414B
:1005B00041217A3A42402078009DA0A07D394444F0
:1005C00044393D4040403D3C24FF2424487E49437B
:1005D000662B2FFC2F2BFF0929F620C0887E0903EC
:1005E00020545479410000447D413048484A323813
:1005F0004040227A007A0A0A727D0D19317D26293F
:10060000292F28262929292630484D402038080836
:10061000080808080808382F10C8ACBA2F1028346A
:10062000FA00007B000008142A142222142A14085D
:100630009500220095AA005500AAAA55AA55AA001D
:100640000000FF00101010FF00141414FF00101021
:10065000FF00FF1010F010F0141414FC001414F735
:1006600000FF0000FF00FF1414F404FC1414171022
:100670001F10101F101F1414141F00101010F00072
:100680000000001F101010101F10101010F01000AC
:100690000000FF101010101010101010FF100000BC
:1006A00000FF140000FF00FF00001F10170000FCF7
:1006B00004F414141710171414F404F40000FF00C9
:1006C000F714141414141414F700F7141414171452
:1006D00010101F101F141414F4141010F010F00058
:1006E000001F101F0000001F14000000FC14000079
:1006F000F010F01010FF10FF141414FF141010105D
:100700001F00000000F010FFFFFFFFFFF0F0F0F00F
:10071000F0FFFFFF0000000000FFFF0F0F0F0F0FA3
:1007200038444438447C2A2A3E147E0202060602DB
:100730007E027E0263554941633844443C04407E56
:10074000201E2006027E020299A5E7A5991C2A49CF
:100750002A1C4C7201724C304A4D4D30304878485A
:1007600030BC625A463D3E494949007E0101017E46
:100770002A2A2A2A2A44445F444440514A44404099
:10078000444A51400000FF0103E080FF00000808D8
:100790006B6B083612362436060F090F0600001858
:1007A000180000001010003040FF0101001F01017F
:1007B0001E00191D1712003C3C3C3C0000000000CC
:1007C000080B0002020201000904000001020200FD
:1007D000000524001001052401010104240206057E
:1007E00024060001070581031000400904010002EE
:1007F0000A000000070502024000000705830240CE
:1008000000000403090412010002EF020140412329
:10081000368000010102030141726475696E6F2028
:100820004C4C430041726475696E6F204C656F6E6D
:100830006172646F0000002040404040807878681A
:10084000786878000000010202020202815F3F3FE7
:100850003F3F5F80000000003020204080787868B3
:100860007868780000000E0101010202815F3F3FBD
:100870003F3F5F8000000020404040408078786823
:10088000786878000000010202020202011FFF3FA7
:100890003FFF1F0000000020404040408078786803
:1008A000786878000000000304040402011FFF3F81
:1008B0003FFF1F0000000000302020408078786853
:1008C0007868780000000E0101010202011FFF3F5D
:1008D0003FFF1F000000007868786878788040400B
:1008E000404020000000805F3F3F3F3F5F810202A9
:1008F0000202020100000078687868787880402061
:10090000203000000000805F3F3F3F3F5F810202D8
:100910000101010E00000078687868787880404016
:10092000404020000000001FFF3F3FFF1F01020268
:100930000202020100000078687868787880404000
:10094000404020000000001FFF3F3FFF1F01020446
:1009500004040300000000786878687878804020FC
:10096000203000000000001FFF3F3FFF1F01020278
:100970000101010E000000000000786878687878B6
:10098000000000000000804040381F7FBF3FFF1F75
:10099000F88000000000000000007868786878782F
:1009A000000000000000000080F81FFF3F3F7F9F15
:1009B000384040800000000000007868786878784F
:1009C000000000000000804040381FFF3F3FFF1F35
:1009D000F8800000000000000000786878687878EF
:1009E0000000000000000080C0781FFF3F3FFF1F95
:1009F00078C080000000000000007868786878788F
:100A0000000000000000000080F81FFF3F3FFF1FB4
:100A100038404080000000000000787878787878CE
:100A2000000000000000804040381F7FBF3FFF1FD4
:100A3000F88000000000000000007878787878786E
:100A4000000000000000000080F81FFF3F3F7F9F74
:100A5000384040800000000000007878787878788E
:100A6000000000000000804040381FFF3F3FFF1F94
:100A7000F88000000000000000007878787878782E
:100A80000000000000000080C0781FFF3F3FFF1FF4
:100A900078C08000000000000000787878787878CE
:100AA000000000000000000080F81FFF3F3FFF1F14
:100AB0003840408000D5F08D14A1C881CFD9F1AF66
:100AC0002000F243444546F23C3D3E3F404142FF58
:100AD000FFFFFFFFFFFFFFFFFFFFFFFFFFFFFFFF26
:100AE000FFFFFFFFFFFFFFFFFFFFFFFFFFFFFFFF16
:100AF000FFFFFFFFFFFFFFFFFFFFFFFFFFFFFFFF06
:100B0000FFFFFFFFFFFFFFFFFFFFFFFFFFFFFFFFF5
:100B1000FFFFFFFFFFFFFFFFFFFFFFFFFFFFFFFFE5
:100B2000FFFFFFFFFFFFFFFFFFFFFFFFFFFFFFFFD5
:100B3000FFFFFF01F4F4F4747474747474747474C7
:100B4000747474747474747474747474747474FFDA
:100B5000FFFFFFFFFFFFFFFF7BFFFFDBFFFFDDFF6F
:100B6000FFFFFFFFFFFFFFFFFFFFFFFFFFFFFF7B19
:100B7000FFFFDBFFFFDDFFFFFFFFFFFFFFFFFFFFCB
:100B8000FFFFFFFFFFFFFFFFFFFFFFFFFFFFFFFF75
:100B90007BFFFFDBFFFFDDFFFFFFFFFFFFFFFF5ED0
:100BA000A79B35359BA75EFFFFFFFFFFFFFFFFFF02
:100BB000FFFFFF00FFFFFF7EBDDBE7E7DBBD7E7EC3
:100BC000BDDBE7E7DBBD7E7EBDDBE7E7DBBD7EFFB0
:100BD000FFFFFFFFFFFFFFFFFFFFFFFFFFFFFFFF25
:100BE000FFFFFFFFFFFFFF7BFFFFDBFFFFDDFFFFDF
:100BF000FFFFFFFFFFFFFFFFFFFFFFFFFFFFFFFF05
:100C0000FFFFFFFFFFFFFFFFFFFFFFFFFFFFFFFFF4
:100C1000FFFFFFFFFFFFFFFFFFFFFFFFFFFFFFFFE4
:100C2000FFFFFFFFFFFFFFB7B505757505B5B7FF00
:100C3000FFFFFF00FFFFFF7EBDDBE7E7DBBD7E7E42
:100C4000BDDBE7E7DBBD7E7EBDDBE7E7DBBD7EFF2F
:100C5000FFFFFFFFFFFFFFFFFFFFFFFFFFFFFFFFA4
:100C6000FFFFFFFFFFFFFFFFFFFFFFFFFFFFFF7B18
:100C7000FFFFDBFFFFDDFFFFFFFFFFFFFFFFFFFFCA
:100C8000FFFFFFFFFFFFFFFFFFFFFFFFFFFFFFFF74
:100C9000FFFFFFFFFFFFFF5EA79B35359BA75EFFB2
:100CA000FFFFFFFFFFFFFFFFFFFF0000FFFFFFFF52
:100CB000FFFFFF802F2F2F2E2E2E2E2E2E2E2E2E8C
:100CC0002E2E2E2E2E2E2E2E2E2E2E2E2E2E2EEE84
:100CD00078F4F8DCAADCAAEE78F4F8DCAADCAA7CCA
:100CE00011AB53A74FBF7FFFFFFFFFFFFFFFFFFFCA
:100CF000FFFFFFFFFFFFFFFFFFFFFFFFFFFFFFFF04
:100D0000FFFFFFFFFFFFFFFFFFFFFFFFFFFFFFFFF3
:100D1000FFFFFFFFFFFFFFFFFFFFFFFFFFFFFFFFE3
:100D2000FFFFFFFFFFFFFFFFFFFFFFFFFFFFFFFFD3
:100D3000FFFFFFFF00FFFF8195A9B5B9BDBD818110
:100D400095A9B5B9BDBD818195A9B5B9BDBD81EFE5
:100D500079F5FADDAEDFADEF79F5FADDAEDFAD7E28
:100D600011A255AA51A814FFFFDBFFFFDDFFFFFF13
:100D70007BFFFFDBFFFFDDFFFFFFFFFFFFFFFFFF4D
:100D8000FFFFFFFFFFFFFFFFDBFFFFDDFFFFFFFFB9
:100D9000FFFFFFFFFFFFFFFFFFFFFFFFFFFFFFFF63
:100DA000FFFFFFFFFFFFFFFFFFFFFFFFFFFFFFFF53
:100DB000FFFFFFFF00FFFF36B6B686B6B6B6303689
:100DC000B6B686B6B6B63036B6B686B6B6B630EF76
:100DD00079F5FADDAEDFADEF79F5FADDAEDFAD7EA8
:100DE00011A255AA51A814FFFFFFFFFFFFFFFFFF4D
:100DF000FFFFFFFFFFFFFFFFFFFFFFFFFFFFFFFF03
:100E0000FFFFFFFFFFFFFFFFFFFFFFFFFFFFFFFFF2
:100E1000FFFFFFFFFFFFFFFFFFFFFFFFFFFFFF7B66
:100E2000FFFFDBFFFFDDFFFFFFFFFFFFFFFFFFFF18
:100E3000FFFFFFFF00FFFF36B6B686B6B6B6303608
:100E4000B6B686B6B6B630FFFF01FD05757575EF0F
:100E500079F5FADDAEDFADEF79F5FADDAEDFAD7E27
:100E60007D7AB54A9DAAC0FFFFFFFFFFFFFFFFFF8E
:100E7000FFFFFFFFFFFFFFFF7BFFFFDBFFFFDDFF4C
:100E80007BFFFFDBFFFFDDFF7BFFFFDBFFFFDDFF06
:100E9000FFFFFFFFFFFFFFFFFFFFFFFFFFFFFFFF62
:100EA000FFFFFFFFFFFFFFFFFFFFFFFFFFFFFFFF52
:100EB000FFFFFFFF807FFFC0C0B6868686868686DE
:100EC000868686868686867E7E00BFA0AEA0AEF22F
:100ED000393AF100F23A3B0B0CF23435360B0C3751
:100EE00009383233F22A2B2C2D2E2F003031323399
:100EF0002F000B0C35203420332032203120302EAF
:100F00002E2E00F22324F100F2251C0B0C082627BC
:100F10002829F21A1B1C0F101D1E1F20212216F259
:100F20000F100B0C0607111213141516171819F2CF
:100F3000000102030405060708090A0B0C0D0EFF49
:100F4000FFFFFFFFFFFFFF80BFBFBFBFBFB3B0B05A
:100F5000B3BFBFBFBFBF80FFFFFFFFFFFFFFFFFFAC
:100F6000FFFFFFFFFFFFFFFFFFFFFFFFFFFF00FF90
:100F7000FFFFFFFFFFFFFFFF807FFFFFF0EFE0E0DD
:100F8000EFE0EFE0EFEFEFEFEFEFEFEFE0EFE0EFAD
:100F9000E0E0EFEFEFEFEFEFEFEFE0E0EFEFEFEF9D
:100FA000EFEFEFEFEFEFEFEFEFEFEFEFEFDF3FFF01
:100FB00007D7D7D7D7D7075F5F5F5F5F5F5F5F57A1
:100FC000D7178F8F1757D757D7178F8F1757D757D1
:100FD000D7178F8F1757D757D7178F8F1757D757C1
:100FE000D7178F8F1757D757D7178F8F175700FFE0
:100FF000FFFFFFFFFFFFFFFFFFFFFEFEFEFE000003
:1010000086809A989E9E9E9E9E9E9E9E989A808680
:101010000000FEFEFEFEFEFEFEFE0000FEFEFEFEE8
:10102000FEFEFEFEFEFEFEFEFEFE01FFFFFF00FFD7
:10103000007F7F7F7F7F00EBEBEBEBEBEB8BBB5E0F
:101040005E407F401E5E1E5E5E0078405E5E1E5EFD
:101050005E407F405E5E1E5E5E407F405E5E1E5E66
:101060005E407F405E5E1E5E5E407F405E5E00FFD3
:10107000FFFFFFFFFFFFFFFFFFFFFFFFFFFFE0FDA1
:10108000FEFEFEFEFEFEFEFEFEFEFEFEFEFEFEFE80
:10109000FDE0FFFFFFFFFFFFFFFF0000E7E7E7E7DF
:1010A000E7E7E7E7E7E7E781BD8D308DBD9900BD54
:1010B0000000FDFCFFFFFFFFFFFFFFFFFFFFFFFF43
:1010C000FFFFFFFFFFFFFFFFFFFFFFFFFFFFFFFF30
:1010D000FFFFFFFFFFFFFFFFFFFFFFFFFFFFFFFF20
:1010E000FFFFFFFFFFFFFF0707E7E0F0FFFFFFFF46
:1010F000FFFFFFFFFFFFFFFFFFFFFFFFFFFFFFFF00
:10110000FFFFFFFFFFFFFFFFFFFFFFFFFFFFFFFFEF
:10111000FFFFFFFFFFFFFFFFFFFF0000FFFFFFFFDD
:10112000FFFFFFFFFFFFFFFFFFFF00FFFFFF00FFCD
:101130000000BFBFBFBFBFBFBFBFBFBFBFBFBFFFFD
:10114000FFFFFFFFFFFFFF0FEFEFEFEFEFEFEFEF1F
:10115000EFEFEFEFEFEF0FFFFFFFFFFFFFFFFF0FDF
:10116000EFEFEFEFEFEFEF80C0EFEFEFEFEF0FFFFD
:10117000FFFFFFFFFFFFFFFFFFFFFFFFFFFFFFFF7F
:10118000FFFFFFFFFFFFFFFFFFFFFFFFFFFFFFFF6F
:10119000FFFFFFFFFFFFFFFFFFFF0000FF1FDFDF7D
:1011A000DFDFDFDFDFDFDF03FDFAF2E2EAEAEAEAB0
:1011B000EAEAE2F2FAFD03FFFFFFFFFFFFFFFFFF96
:1011C000FFFFFFFFFFFFFF00FE027A7A7A7A7A7A4A
:1011D00002FEAAFEAAAA00F3F3F3F1F9F9F9F90065
:1011E000FEFEF2F272BE3EBE72F2F2FE8AFE00FF18
:1011F000FFFFFFFFFFFFFFFFFFFFFFFFFFFFCFAF7F
:101200006F6F6F6F6F6F6F6F6F6F6F6F6F6F6FAFAE
:10121000CFFFFFFFFFFFFF00F6F6F6F6F6F60087BA
:101220008B878B878B878B00FFFFFFFFFFFFFFFF05
:10123000FFFFFFFFFFFF00CCD2D2CCD2D2CCD256E0
:101240005A565A565A565A007F6B7F6B7F6B7F6F88
:101250006F6F6F77787F00565A565A565A565A0013
:101260007F7F7F78756D606D75787F7F7F7F007978
:1012700079797901037F7F7F077B0B6B037D0E36C6
:101280003B3B1B3A3A350B7F0B353A3A1B3B3B361F
:101290000E7C007C067676007F6A7F6A6A7F008714
:1012A0008B878B878B878B003FBFBFBFBFBFBFBF05
:1012B000BFBFBFBFBF3F00565A565A565A565AFF75
:1012C000FFFFFFFFFFFFFFFFFFFFFFFFFFFFFFFF2E
:1012D000FFFFFFFFFFFFFFFFFFFFFFFFFFFFFFFF1E
:1012E000FFFFFFFFFFFFFFFFFFFFFFFFFFFFFFFF0E
:1012F000FFFFFFFFFFFFFFFFFFFFFFFFFFFFFFFFFE
:10130000FFFFFFFFFFFFFFFFFFFFFFFFFFFFFFFFED
:10131000FFFFFFFFFFFFFFFFFFFFFFFFFFFFFFFFDD
:10132000FFFFFFFFFFFFFFFEFDFDFDFDFDFDFDFDDE
:10133000FDFDFDFDFDFDFEFFFFFFFFFFFFFFFF00C9
:101340005B1611241FBECFEFDAE0DEBFCDBF11E088
:10135000A0E0B1E0EEEBFEE202C005900D92A438F1
:10136000B107D9F726E0A4E8B1E001C01D92A6328A
:10137000B207E1F719E0C1EAD9E004C02197FE0104
:101380000E945717C03AD107C9F70E9423130C9443
:101390005D170C94000040918F01509190012091B5
:1013A0008D0130918E0142175307B4F49091E800FB
:1013B0009570E1F39091E80092FD19C08093F100DF
:1013C00080918F019091900101968F739927892BBD
:1013D00019F48EEF8093E80080918F019091900135
:1013E00001969093900180938F0181E0089580E0B1
:1013F0000895CF92DF92EF92FF920F931F93CF93B6
:10140000DF931F92CDB7DEB7182F062FE42E862F5D
:10141000880F8E5F99830E94CB0983E00E94CB09DD
:10142000F12EC12E9981D92E8C2D8F19801798F409
:10143000F601E7FE02C0849101C080810E94CB09C1
:10144000182F80E00E94CB098123FFEFCF1ADF0A1B
:101450008111EACF01C081E00F90DF91CF911F9100
:101460000F91FF90EF90DF90CF900895DF92EF9271
:10147000FF920F931F93CF93DF93D82E8A017B01A6
:10148000E40EF51EEB01CE15DF0571F0D7FE03C0AB
:10149000FE01849101C088810E94CB0921968111AF
:1014A000F2CF8FEF9FEF01C0C801DF91CF911F9165
:1014B0000F91FF90EF90DF900895615030F02091F0
:1014C000F100FC0120830196F8CF289884E68093F0
:1014D000AA010895CF92DF92EF92FF920F931F938C
:1014E000CF93DF936C017A018B01C0E0D0E0CE1581
:1014F000DF0589F0D8016D918D01D601ED91FC9148
:101500000190F081E02DC6010995892B11F47E012F
:1015100002C02196ECCFC701DF91CF911F910F91AF
:10152000FF90EF90DF90CF900895CF93DF931F92BD
:10153000CDB7DEB76983DC01ED91FC910280F381C8
:10154000E02D41E050E0BE016F5F7F4F09950F90A5
:10155000DF91CF91089583E08093E9008091F200BC
:10156000882319F08AE38093E8000895FC018485BC
:10157000958597FD0BC09FB7F89482E08093E900B2
:101580008091F2009FBF90E0019608959FB7F89474
:1015900082E08093E9008091F2009FBF90E008957F
:1015A0003FB7F8948091890190918A01A0918B01B5
:1015B000B0918C0126B5A89B05C02F3F19F001966C
:1015C000A11DB11D3FBFBA2FA92F982F8827820FC9
:1015D000911DA11DB11DBC01CD0142E0660F771F19
:1015E000881F991F4A95D1F708950895089580E0BE
:1015F00090E008950F931F93CF93DF931F92CDB781
:10160000DEB782E0898342E450E060EC77E080E876
:101610000E94360A0E94CB12DC0112960D911C9199
:1016200013970115110569F0D801ED91FC91028025
:10163000F381E02DBE016F5F7F4FC801099597FFD1
:1016400007C089810F90DF91CF911F910F9108956D
:10165000F80100851185E5CF0E94BA1290E0089547
:10166000CF93DF931F92CDB7DEB7FC0184859585BC
:1016700097FD05C02FEF3FEF358724870BC0CE01C4
:1016800001960E949012019719F4898190E002C09E
:101690008FEF9FEF0F90DF91CF9108950F931F93DE
:1016A000CF93DF931F92CDB7DEB78C01FC01848509
:1016B000958597FF0EC0CE0101960E94901201976A
:1016C00019F4298130E002C02FEF3FEFF801358790
:1016D0002487F801848595850F90DF91CF911F9124
:1016E0000F910895CF93DF9300D000D0CDB7DEB730
:1016F000611571058105910579F09B01AC01698344
:101700003A834B835C830E94DE1629813A814B81A8
:101710005C810E94F41603C060E070E0CB010F9082
:101720000F900F900F90DF91CF9108951F920F921D
:101730000FB60F9211248F939F938091E1009091A7
:10174000E100937F9093E10083FF0FC01092E900C6
:1017500091E09093EB001092EC0092E39093ED00F7
:101760001092AB0198E09093F00082FF20C093E0CC
:101770009093E9009091F200992319F09AE39093E5
:10178000E80090919101992339F090919101915045
:1017900090939101992389F19091AA01992339F0AD
:1017A0009091AA0191509093AA01992341F184FF4D
:1017B00010C08091E2008E7E81608093E200809173
:1017C000E1008F7E8093E100809193018E7E8061A5
:1017D00011C080FF16C08091E2008E7E80618093F0
:1017E000E2008091E1008E7E8093E1008091930180
:1017F0008E7E81608093930104C05D9ACDCF289A3C
:10180000D6CF9F918F910F900FBE0F901F9018957C
:101810001F920F920FB60F921124CF92DF92EF9288
:10182000FF920F931F932F933F934F935F936F9369
:101830007F938F939F93AF93BF93EF93FF93CF9338
:10184000DF93CDB7DEB76C97DEBFCDBF1092E90056
:101850008091E80083FFEDC168E0CE0145960E94CB
:101860005D0A82EF8093E8008D8987FF05C0909123
:10187000E80090FFFCCF03C09EEF9093E800982F04
:10188000907609F0C6C09E892F89188D91110CC0E1
:10189000803829F4809194018093F10002C0109265
:1018A000F1001092F10048C1422F50E0512B9130CD
:1018B00051F4811141C14130510509F03DC1809180
:1018C00094018D7F0BC0933061F4811135C141309B
:1018D000510509F031C18091940182608093940197
:1018E0002BC1953041F48091E80080FFFCCF206847
:1018F0002093E30021C1963009F05FC0EB8CFC8C93
:101900001092E9001092900110928F01123091F51F
:1019100010928E0110928D010E94FA0A99E0BE0188
:101920006F5F7F4FDB01E92F1D92EA95E9F79983FD
:101930001A8391E09E8390EA98879AEF9987209185
:101940008F0130919001275F3F4F3C832B838D8324
:101950001092E9001092900110928F01F0928E0186
:10196000E0928D0149E050E080E00E94360A0E943A
:10197000FA0AE2C0F0928E01E0928D010E94CB1231
:10198000DC011296ED90FC901397E114F10409F438
:10199000C0C0D701ED91FC910480F581E02DBE011E
:1019A0006B5E7F4FC7010995009719F00CF0C4C01A
:1019B000C7C0F701E084F184E8CF973009F4C0C0D4
:1019C000983021F481E08093F100B6C0993009F09D
:1019D000B3C0837009F0B4C0E7E1F1E081E021E039
:1019E00036E39081992361F08093E9002093EB0026
:1019F00091919093EC003093ED008F5F873089F7E1
:101A00008EE78093EA001092EA008F898093AB0101
:101A100093C08B8D9C8D1092E900109290011092D2
:101A20008F0190938E0180938D01898D811156C015
:101A30008E899D89913A59F4813209F081C047E03D
:101A400050E064E071E080E00E94360A75C0913297
:101A500009F076C0833289F4888D90E0982F88272A
:101A60002F89822BA0E0B0E08093000190930101C8
:101A7000A0930201B09303015FC0803269F48091AA
:101A8000E80082FFFCCF67E084E091E00E945D0AFD
:101A90008BEF8093E80006C0823209F04DC08F8939
:101AA00080930B0180919201882319F0EEEFFAE008
:101AB00002C0E0E0F8E08091040190910501A0915E
:101AC0000601B0910701803B9440A105B10509F0E2
:101AD0007BC080910B0180FF93C076C00E94CB1227
:101AE000DC0112960D911C9113970115110541F11E
:101AF000D801ED91FC910190F081E02DBE016B5E6B
:101B00007F4FC8010995811117C0F8010085118523
:101B1000ECCF113009F44EC0133091F48F89882333
:101B200009F445C0823081F440E860E184E298E045
:101B30000E94F909882321F08EEF8093E80079C094
:101B400081E28093EB0075C0813029F440E86BE0BE
:101B500088E198E0EDCF833099F70E94CB12DC0149
:101B60001296ED90FC9013978E010F5F1F4F680146
:101B7000E114F10479F0D701ED91FC910680F78131
:101B8000E02DB801C7010995080F111DF701E08488
:101B9000F184EECFD8011C92F60101900020E9F704
:101BA0003197BF016C197D0940E0C601C1CF62E0E9
:101BB00078E002C066E078E06115710509F2FB018A
:101BC000449150E080E840CF0FB6F894A8958091FA
:101BD0006000886180936000109260000FBEA8953D
:101BE000EE3F2AE0F20739F08091FE0A9091FF0A59
:101BF00091838083A1CF1092FF0A1092FE0A9CCF9E
:101C0000EE3F8AE0F80731F0808191819093FF0ADE
:101C10008093FE0A87E797E7918380839BE088E1C2
:101C20000FB6F894A895809360000FBE9093600063
:101C300083CF6C960FB6F894DEBF0FBECDBFDF9199
:101C4000CF91FF91EF91BF91AF919F918F917F9134
:101C50006F915F914F913F912F911F910F91FF9045
:101C6000EF90DF90CF900F900FBE0F901F901895C0
:101C70008F929F92AF92BF92CF92DF92EF92FF929C
:101C80006B017C010E94D00A4B015C01C114D1049C
:101C9000E104F104F1F00E94D00ADC01CB018819C3
:101CA0009909AA09BB09883E9340A105B10570F3C3
:101CB00021E0C21AD108E108F10888EE880E83E01D
:101CC000981EA11CB11CC114D104E104F10419F740
:101CD000DDCFFF90EF90DF90CF90BF90AF909F90BF
:101CE0008F9008958F929F92AF92BF92CF92DF9282
:101CF000EF92FF920F931F93CF93DF935C016B01E1
:101D00007A0180910B01882309F45BC08091AB01BB
:101D1000882309F456C08091930180FF05C080910B
:101D2000E00082608093E000E70110E00AEF83E0CA
:101D3000882E9AE3992E2097D9F10E94BA12811128
:101D40000AC0015009F43DC061E070E080E090E01D
:101D50000E94380EF0CF282F30E0C217D3070CF4C2
:101D60008C2F4FB7F8948092E9009091E80095FF8E
:101D70001DC0282F30E0C21BD30BF601982F9150C5
:101D800020F081918093F100FACFC20ED31E11236F
:101D900019F09092E80009C08091E80085FD06C026
:101DA0009092E80011E0209709F010E04FBFC3CFF8
:101DB0001111C3CF5D9884E6809391011E141F0416
:101DC00044F081E090E0F5019383828380E090E02D
:101DD00001C0C701DF91CF911F910F91FF90EF904C
:101DE000DF90CF90BF90AF909F908F9008952FB7C6
:101DF000F89460918501709186018091870190919E
:101E000088012FBF08951F920F920FB60F921124D1
:101E10002F933F938F939F93AF93BF9380918501AF
:101E200090918601A0918701B09188013091840141
:101E300023E0230F2D3720F40196A11DB11D05C00D
:101E400026E8230F0296A11DB11D209384018093E3
:101E5000850190938601A0938701B09388018091BA
:101E6000890190918A01A0918B01B0918C0101961A
:101E7000A11DB11D8093890190938A01A0938B01CC
:101E8000B0938C01BF91AF919F918F913F912F9112
:101E90000F900FBE0F901F901895BC0180E090E04E
:101EA0000C94380E8FB12CB193B130E02095309561
:101EB00020743327A90123E0559547952A95E1F72A
:101EC000292F30E0209530952071332735952795BF
:101ED00035952795242B8095807F822B08952F920E
:101EE0003F924F925F926F927F928F929F92AF92AA
:101EF000BF92CF92DF92EF92FF920F931F93CF93F7
:101F0000DF93CDB7DEB72D970FB6F894DEBF0FBEC7
:101F1000CDBFED82E22EF12C9C012E0D3F1D37FD31
:101F200032C1803891050CF02EC19B01200F311D6C
:101F300037FD29C1603471050CF025C1DB0177FF45
:101F400004C0AA27BB27A61BB70BA770BB279B0102
:101F500077FF02C0295F3F4F13E0359527951A950B
:101F6000E1F777FF08C02150310968E070E0FB011C
:101F7000EA1BFB0BDF01E02FE695E695E695CE2EFA
:101F8000D12C077019F0FFEFCF1ADF0AB90176954F
:101F9000762F662777956795680F791F64557E4F72
:101FA0008601020F131F19870887C12CD12CF8E076
:101FB000AF2EB12C85010A1B1B0B1F830E830885D6
:101FC00019852017310709F4DEC02830310509F4DE
:101FD000DAC02F3F1FEF31070CF4CAC08B01005845
:101FE0001F4F1D870C874B013B012B011C011C83DC
:101FF0000B831A8309831B861A860A851B850E1597
:102000001F050CF0B5C010E82116310409F4B0C06A
:1020100037FC89C02F3FEFEF3E0709F4B0C00A85B7
:102020001B850C0D1D1DFD81F13079F4F801E40FC5
:10203000F51FE491F0E08F010A2E01C0000F0A9411
:10204000EAF7F301B0800B2925C0FD81F11114C01E
:10205000F801E40FF51FE491F0E00A2E02C0EE0F44
:10206000FF1F0A94E2F78F0100951095F401A080FC
:10207000B12C0A211B210EC0F801E40FF51FE491D9
:10208000F0E08F010A2E01C0000F0A94EAF7F20176
:10209000B0800B250083109709F445C02730310527
:1020A00009F441C00A851B850C0D1D1DFD81F13011
:1020B00089F4F801E40FF51FE4910E2F10E00E8073
:1020C00002C0159507950A94E2F7EC85FD85B0806E
:1020D0000B2928C0FD81F11115C0F801E40FF51F8F
:1020E000E4910E2F10E00E8002C0159507950A941A
:1020F000E2F700951095E981FA81A080B12C0A21C0
:102100001B2110C0F801E40FF51FE4910E2F10E021
:102110000E8002C0159507950A94E2F7EB81FC81C9
:10212000B0800B2500830A851B850F5F1F4F1B871F
:102130000A870C851D850F5F1F4F1D870C8709813E
:102140001A810F5F1F4F1A8309830B811C810F5F58
:102150001F4F1C830B831FEF211A310AEFEF4E1A1A
:102160005E0AFFEF6F1A7F0A0FEF801A900A45CFC1
:102170002F5F3F4F60587F4FCE0CDF1C20CF109752
:1021800009F090CFD0CF2D960FB6F894DEBF0FBEDA
:10219000CDBFDF91CF911F910F91FF90EF90DF9016
:1021A000CF90BF90AF909F908F907F906F905F90F7
:1021B0004F903F902F90089560387105D0F44034CF
:1021C0005105B8F4E8EBF2E080E1849FD001A078FB
:1021D0001124A60F4770E40FF11D8491A455BE4F42
:1021E000222319F06C91862B03C080956C91862375
:1021F0008C9308952F923F924F925F926F927F92AD
:102200008F929F92AF92BF92CF92DF92EF92FF9206
:102210000F931F93CF93DF93CDB7DEB729970FB6F8
:10222000F894DEBF0FBECDBFFC016A3069F4248D87
:10223000808D918D38E0239F800D911D1124918F09
:10224000808F178A168AAAC06D3009F4A7C09987B3
:102250008887F48C338C228C608C718C068917896A
:1022600000381105C4F0A885B9855C962C915C975F
:10227000422F50E056968D919C915797B6E02B9F38
:10228000800D911D1124E885F985978B868B258D0E
:1022900021116EC083C0F0E46F16710424F7C801E9
:1022A00025E0F29E800D911D112418161906DCF60A
:1022B0008F2D90E09C838B83C301A8E0FA9E800D54
:1022C000911D11241816190674F6B5E06B9FB00124
:1022D0001124FB01E054FD4FFA83E98330E0888547
:1022E000998504969E838D83E981FA81E490353047
:1022F00009F4E12C430188E0482EE0FC02C0532C95
:1023000001C0522C51100BC0321009C0E6944A94FF
:102310008B819C81880E991E4110EFCF1BC06801F4
:102320008C2D801B8F1590F754018A2D88198F15DD
:1023300068F4252DA501B6018D819E813F830E9401
:10234000DC109FEFA91AB90A3F81EFCFAFEFCA1A8D
:10235000DA0AE6CF3F5FEB81FC810E0F1F1F8981F8
:102360009A8101969A838983363009F0BDCF7BCF5D
:102370006AEF64039001659F300D112420583F4F90
:10238000281739075CF4A885B985ED91FC91119760
:102390000190F081E02D6AE0CD01099581E090E0A7
:1023A00029960FB6F894DEBF0FBECDBFDF91CF9157
:1023B0001F910F91FF90EF90DF90CF90BF90AF9063
:1023C0009F908F907F906F905F904F903F902F9055
:1023D00008956F927F928F929F92AF92BF92CF9209
:1023E000DF92EF92FF920F931F93CF93DF931F9291
:1023F000CDB7DEB7182F362FF22E942E3A0187E094
:10240000882E862D89198F1550F5F3014491473494
:1024100010F5812F90E08937910514F0385F10E0B6
:10242000C32ED12CA12EB12C849EA001112449537E
:102430005F4FE12C08E027E0B601C50139830E9417
:102440006F0F21E046EC50E0B601C50107960E94EF
:102450006F0F185F3981FFEF6F1A7F0AD2CF0F908D
:10246000DF91CF911F910F91FF90EF90DF90CF9070
:10247000BF90AF909F908F907F906F9008958091C4
:10248000AC018EBDEDEAF1E081910DB407FEFDCF08
:102490008EBD85E0EC3AF807B9F70DB407FEFDCF25
:1024A00008958F929F92AF92BF92CF92DF92EF9258
:1024B000FF920F93CF93DF936B01EC014C01840EDD
:1024C000911C5B01A20EB11CC815D905ECF4760174
:1024D000D7FE10C0E12CF12C0DC0E816F90694F4DB
:1024E000202FA701BE0180E096E00E94DC102FEFB4
:1024F000E21AF20AC50121E4A216B10474F380E4E1
:1025000090E0EBCF2196E0CFDF91CF910F91FF903C
:10251000EF90DF90CF90BF90AF909F908F900895F5
:10252000FC018091AB01811103C08FEF9FEF0895F3
:102530009FB7F89482E08093E9002091F20030E0A8
:102540001216130614F421E030E02115310559F07C
:10255000289884E68093AA018091F100808380917D
:10256000F200882319F09FBFC90108958BE680937C
:10257000E800F9CF2FB7F89483E08093E9009091B9
:10258000E800892F807295FF04C09091F20080E4EA
:10259000891B2FBF089580911E0681110DC082E016
:1025A00080931A0684E080931B0610921D061092F9
:1025B0001C0681E080931E068AE196E008950F9341
:1025C0001F93CF93DF938C0181E090E00E94EC1683
:1025D00080FF31C08AE090E00E94EC169FEF980FD8
:1025E0009E3F48F522E330E0D80157963C932E9366
:1025F000569728E330E059963C932E935897CBE0BA
:10260000D0E0D801ED91FC910190F081E02D682F90
:10261000C8010995CE010E94EC162196C131D10561
:1026200081F70E943F1288EE93E0DF91CF911F91D6
:102630000F910C944D0FDF91CF911F910F91089541
:1026400004970C94DF12789484B5826084BD84B5BD
:10265000816084BD85B5826085BD85B5816085BD9D
:1026600080916E00816080936E0010928100809155
:1026700081008260809381008091810081608093DD
:102680008100809180008160809380008091910022
:10269000826080939100809191008160809391008D
:1026A000809190008160809390008091C10084604F
:1026B0008093C1008091C10082608093C1008091AD
:1026C000C10081608093C1008091C30081608093CC
:1026D000C3008091C00082608093C0008091C200DE
:1026E00081608093C20080917A00846080937A0038
:1026F00080917A00826080937A0080917A00816074
:1027000080937A0080917A00806880937A0010929A
:10271000AB0110929401109293018091D7008160D7
:102720008093D70080EA8093D80089B5806189BD05
:1027300089B5826089BD09B400FEFDCF61E070E01B
:1027400080E090E00E94380E8091D8008F7C8061FC
:102750008093D8008091E000807F8093E00080919A
:10276000E1008E7E8093E1008DE08093E200559A37
:10277000209AEEEFFFE7859194918B3F9C4D19F4E1
:1027800081E08093920181EC80937C0085B1806F21
:1027900085B9249884B1866E84B95E9A5F988AB1AF
:1027A000806D8AB9769A6E9881B3806F81BB899863
:1027B00080B38D7080BB80E58CBD81E08DBD85E0F0
:1027C00090E00E944D0F5F9A85E090E00E944D0FCF
:1027D0005E985C98E5EBFAE08DE08E0F94919EBDDB
:1027E00000000DB407FEFDCF31968E13F7CF5C9A33
:1027F00081E88093640081E0809365002FEF3FEFD4
:102800003093B9052093B8051092160680931706E9
:102810004CEAC42E41E0D42E50E0A52E50E0B52E57
:10282000FF24FA9465E0762E74E0672EE9E38E2E9D
:10283000912CC1E01BE00E94F70E2091990130918C
:102840009A0140919B0150919C01225E3F4F4F4F56
:102850005F4F621773078407950770F10E94F70EA8
:102860006093990170939A0180939B0190939C01CE
:10287000F0920C010E94520F87FD10920C010E94F1
:10288000520F84FDC0930C010E94520F85FF03C0BC
:1028900082E080930C010E94520F86FF03C0E3E0A8
:1028A000E0930C010E94520F83FD60920C010E9484
:1028B000520F82FD70920C0180910C01843028F43B
:1028C000C093A6018093110102C01092A60184302A
:1028D000C1F48091A7018823A1F00E94F70E2091F6
:1028E000A1013091A2014091A3015091A4012C506B
:1028F0003E4F4F4F5F4F621773078407950708F0ED
:10290000CAC180E0F60181118FEF00248193819389
:10291000819381930394D1F71092150610921406B7
:1029200010921306109212068091A901882321F0BB
:10293000813009F488C1A6C1EE24E39400E420E8C4
:102940004FE35FE060E070E080E090E00E946F0F96
:10295000D1E164E070E080E090E00E94720B1B0126
:102960002C0166E070E080E090E00E94720BFBE2D8
:102970002F0E311C411C511C655F7F4F8F4F9F4FA5
:1029800020E0A10180E096E00E94DC10D15009F720
:1029900063E070E080E090E00E94720B6E5B7F4F1E
:1029A0008F4F9F4F20E044E350E080E096E00E948C
:1029B000DC1063E070E080E090E00E94720B645BEA
:1029C0007F4F8F4F9F4F20E044E350E080E096E040
:1029D0000E94DC10E0911101D091A501F0E0EE0F12
:1029E000FF1F8091A601E80FF11DEE0FFF1FEE0FF4
:1029F000FF1FED0FF11DEE0FFF1FE35EFE4F408145
:102A0000518160910F0170911001E12C00E120E1F2
:102A100080910D0190910E010E946F0F0E94F70EA0
:102A20002091950130919601409197015091980124
:102A300026503F4F4F4F5F4F62177307840795072C
:102A400090F00E94F70E6093950170939601809329
:102A5000970190939801DF5FD43018F4D093A501CB
:102A600002C01092A501E091A8018E2F90E08D3058
:102A7000910508F007C1FC01EA5AFF4F0C94571763
:102A8000C093A70120E14FE25FE0CCC020E14FE11D
:102A90005FE0C8C02DE042E15FE0C4C02FE043E04A
:102AA0005FE0C0C0109213061092120690921506B5
:102AB0008092140684EF282E8EE0382EF101649166
:102AC000662309F4DFC0E091FC05F091FD0501905B
:102AD000F081E02D8CEF95E00995FFEF2F1A3F0A6A
:102AE000892B61F7CFC01092A70100E020E440E8F5
:102AF00060E070E080E090E00E94511286E06FC0DC
:102B00006AEF70E080E090E00E94380E87E067C0D6
:102B1000C093A70120E144EE5EE069E380E00E94FB
:102B2000E911D9E86BE170E080E090E00E94720B5F
:102B30001B012C0162E170E080E090E00E94720BCA
:102B400021E1220E311C411C511C605C7F4F8F4FD4
:102B50009F4F20E0A10180E096E00E94DC10D15060
:102B600009F790C02BE049ED5EE069E380E00E9448
:102B7000E91101E028E143E165E170E08FE390E0D5
:102B80000E945112D6E362E170E080E090E00E9482
:102B9000720B1B012C016EE070E080E090E00E945F
:102BA000720BE4E22E0E311C411C511C67597F4F01
:102BB0008F4F9F4F20E0A10180E096E00E94DC1043
:102BC000D15009F75FC01092A70101E020E440E86E
:102BD00060E070E080E090E00E9451128AE0809313
:102BE000A80150C06AEF70E080E090E00E94380ECB
:102BF00001E028E143E165E170E08FE390E00E94AD
:102C000051121093A8013EC0C093A70101E028E132
:102C100043E165E170E08FE390E00E9451122AE009
:102C20004FEC5EE069E380E02BC0C093A9011092F5
:102C3000A80101E028E143E165E170E08FE390E065
:102C40000E9451121FC0EE24E39400E420E84FECF0
:102C50005AE060E070E080E090E00E946F0F8091A9
:102C6000A80181110FC01092A70128E047EC5AE09B
:102C700060E00E94E91125E042EC5AE060E388E25E
:102C80000E94E9110E943F12A114B10409F4D3CDAE
:102C90000E940000CECD8091A8018F5F8093A80193
:102CA0000E94F70E6093A1017093A2018093A3018B
:102CB0009093A40126CEECEAF5E01382128288EE0E
:102CC00093E0A0E0B0E084839583A683B78381E698
:102CD00091E0918380838FEF9FEF95878487ECEF5E
:102CE000F5E0138212821186128620E123879087F5
:102CF0008783108A118A128A138A148A83E791E0E3
:102D00009183808381E891E095838483178A168A72
:102D1000118E108E81E0828F138E848F158E089510
:102D20008F929F92AF92BF92CF92DF92EF92FF92DB
:102D3000CF93DF93EC01688179818A819B81611552
:102D400071058105910521F464E279ED8BE597E049
:102D50002DE133EF41E050E00E94F41649015A01A1
:102D60009B01AC01A7EAB1E40E9413176B017C013F
:102D7000ACEEB4EFA50194010E942117DC01CB0158
:102D80008C0D9D1DAE1DBF1DB7FF03C00197A1098E
:102D9000B04888839983AA83BB83BC01CD019F7708
:102DA000DF91CF91FF90EF90DF90CF90BF90AF90E9
:102DB0009F908F9008950E949016089582E191E06F
:102DC0000E949016089560931201709313018093EE
:102DD0001401909315010895F999FECF92BD81BD1C
:102DE000F89A992780B50895052E97FB1EF4009454
:102DF0000E940B1757FD07D00E94261707FC03D02F
:102E00004EF40C940B1750954095309521953F4FFB
:102E10004F4F5F4F089590958095709561957F4FC6
:102E20008F4F9F4F08950E944817A59F900DB49F04
:102E3000900DA49F800D911D11240895B7FF0C944F
:102E400013170E941317821B930B0895A1E21A2EE9
:102E5000AA1BBB1BFD010DC0AA1FBB1FEE1FFF1F3E
:102E6000A217B307E407F50720F0A21BB30BE40B8E
:102E7000F50B661F771F881F991F1A9469F76095D5
:102E80007095809590959B01AC01BD01CF0108958F
:102E9000A29FB001B39FC001A39F700D811D11249B
:102EA000911DB29F700D811D1124911D0895EE0F8B
:0E2EB000FF1F0590F491E02D0994F894FFCFD8
:102EBE00FFFFFFFF00E1000000000000FF41001DCA
:102ECE0000010100000000C18081000000950A751C
:102EDE000A550A750A350A750A150A750AF509D5CD
:102EEE0009B509D5099509D5097509D509550935C4
:102EFE000915093509F5083509D5083509B50895B7
:102F0E0008750895085508950835089508000000BD
:102F1E0000950A720E2C0BAB0AB60A300B4E0B0044
:102F2E00000000FA106A0AF70AF60ADF12FCFF0028
:042F3E00002013005C
:00000001FF
