:100000000C944D090C9475090C9475090C947509A0
:100010000C9475090C9475090C9475090C94750968
:100020000C9475090C9475090C9475090C94750958
:100030000C9475090C9475090C9475090C94750948
:100040000C94C70E0C9475090C94950E0C946F0EBD
:100050000C9475090C9475090C9475090C94750928
:100060000C9475090C947509801186118A118E11F2
:100070009211B011BD11C611F011231232124412A7
:1000800055120000204040404080787868786878B9
:10009000000000010202020202815F3F3F3F3F5F1A
:1000A00080000000003020204080787868786878F0
:1000B0000000000E0101010202815F3F3F3F3F5FF0
:1000C0008000000020404040408078786878687860
:1000D000000000010202020202011FFF3F3FFF1F5A
:1000E00000000000204040404080787868786878C0
:1000F000000000000304040402011FFF3F3FFF1F34
:10010000000000000030202040807878687868780F
:100110000000000E0101010202011FFF3F3FFF1F0F
:10012000000000007868786878788040404040207F
:10013000000000805F3F3F3F3F5F810202020202FA
:1001400001000000786878687878804020203000CE
:10015000000000805F3F3F3F3F5F810202010101DD
:100160000E00000078687868787880404040402031
:10017000000000001FFF3F3FFF1F010202020202BA
:10018000010000007868786878788040404040201E
:10019000000000001FFF3F3FFF1F01020404040393
:1001A000000000007868786878788040202030006F
:1001B000000000001FFF3F3FFF1F0102020101017D
:1001C0000E00000000000078687868787800000071
:1001D000000000804040381F7FBF3FFF1FF88000B5
:1001E000000000000000007868786878780000005F
:1001F000000000000080F81FFF3F3F7F9F38404015
:1002000080000000000000786878687878000000BE
:10021000000000804040381FFF3F3FFF1FF8800074
:10022000000000000000007868786878780000001E
:100230000000000080C0781FFF3F3FFF1F78C08094
:1002400000000000000000786878687878000000FE
:10025000000000000080F81FFF3F3FFF1F384040B4
:10026000800000000000007878787878780000003E
:10027000000000804040381F7FBF3FFF1FF8800014
:10028000000000000000007878787878780000009E
:10029000000000000080F81FFF3F3F7F9F38404074
:1002A00080000000000000787878787878000000FE
:1002B000000000804040381FFF3F3FFF1FF88000D4
:1002C000000000000000007878787878780000005E
:1002D0000000000080C0781FFF3F3FFF1F78C080F4
:1002E000000000000000007878787878780000003E
:1002F000000000000080F81FFF3F3FFF1F38404014
:10030000800000127A474A7E4A42527F4A5A2F5A48
:10031000420A7D1A7F1A457D4C3F5B2F7B2F5B4C39
:100320003F24037E2A2A0101017F0509014020188C
:1003300007182040047E7F0700477F7F2B7B287BA8
:100340002B7F0A556B015A2D5A704E487F484E70CC
:10035000047E133E5F761A4938626B5E6B625015FD
:10036000157B1109502A754A3E0B764A49387D554E
:100370007D577D493A40786F497F011D151D417FAA
:1003800001201F5042243F40495D3B2D0E407F0419
:100390007E094A7E4908047E011D155D7F243F08C1
:1003A0007E445F6C42221E0B4A7A02621F7A147BE3
:1003B00026520A7D0405457D045F1F752A57324F7A
:1003C000403222534A464057347F082A4D7B063A32
:1003D00052534A4A667A2A7B021A437A0A7D445566
:1003E0007E5444404C201F284440504F557D555763
:1003F00044281A4F6A4F1A28403E4A3E3B3E4A5212
:100400007F156F7D6F157F555F207F011F445C371F
:100410002C6C6B6C047E2D3B294E7F6A6B6204044E
:100420007F043E2A3E6A2F7A28423F427E7E427EE9
:10043000493A6E5A7F5A6E286B6B1C6B6B28424A86
:100440003E0B764A62047E2D7E007F5A4179417FC1
:10045000494941527F403E1A792848442B184B7C29
:1004600008357E437E635E420809497D0B09087E9C
:10047000023A2B3A427E007F555555557F1A7F51DF
:10048000177717512E332E705F5474505E2B7E0AEF
:10049000527F56523617765256403E4A3A423F52A3
:1004A000223E12423F427E445B2E7C2B2E62080885
:1004B0000808080C08283A2E6B2E3A280937313ED6
:1004C0005A2F5E0A667F567F7612047F445F545F20
:1004D00044205F351F751F20122F4A7F5C235E6A00
:1004E00063087A2F7A087F5B37107B377F6A6B440B
:1004F000557E544401020408102040800000000092
:10050000003E5B4F5B3E3E6B4F6B3E1C3E7C3E1C99
:10051000183C7E3C181C577D571C1C5E7F5E1C00DF
:10052000183C1800FFE7C3E7FF0018241800FFE796
:10053000DBE7FF30483A060E2629792926407F0559
:100540000507407F05253F5A3CE73C5A7F3E1C1C6F
:1005500008081C1C3E7F14227F22145F5F005F5F2F
:1005600006097F017F006689956A6060606060941B
:10057000A2FFA29408047E040810207E2010080820
:100580002A1C08081C2A08081E101010100C1E0C2B
:100590001E0C30383E3830060E3E0E0600000000BD
:1005A0000000005F00000007000700147F147F14A4
:1005B000242A7F2A122313086462364956205000E9
:1005C00008070300001C2241000041221C002A1CD5
:1005D0007F1C2A08083E08080080703000080808C0
:1005E0000808000060600020100804023E514945E0
:1005F0003E00427F400072494949462141494D33FE
:100600001814127F1027454545393C4A4949314164
:10061000211109073649494936464949291E000032
:100620001400000040340000000814224114141487
:100630001414004122140802015909063E415D5973
:100640004E7C1211127C7F494949363E414141227C
:100650007F4141413E7F494949417F090909013EA6
:10066000414151737F0808087F00417F41002040CD
:10067000413F017F081422417F404040407F021CDF
:10068000027F7F0408107F3E4141413E7F090909F6
:10069000063E4151215E7F091929462649494932C2
:1006A00003017F01033F4040403F1F2040201F3F88
:1006B0004038403F6314081463030478040361590D
:1006C000494D43007F41414102040810200041414F
:1006D000417F0402010204404040404000030708FB
:1006E0000020545478407F284444383844444428F7
:1006F000384444287F385454541800087E0902189E
:10070000A4A49C787F0804047800447D4000204025
:10071000403D007F1028440000417F40007C047869
:1007200004787C080404783844444438FC182424B1
:100730001818242418FC7C08040408485454542431
:1007400004043F44243C4040207C1C2040201C3CAE
:100750004030403C44281028444C9090907C4464A5
:10076000544C440008364100000077000000413638
:10077000080002010204023C2623263C1EA1A161BE
:10078000123A4040207A38545455592155557941F0
:100790002154547841215554784020545579400CC7
:1007A0001E527212395555555939545454593955A8
:1007B0005454580000457C410002457D42000145EB
:1007C0007C40F0292429F0F0282528F07C54554558
:1007D000002054547C547C0A097F493249494932EB
:1007E0003248484832324A4848303A4141217A3A00
:1007F00042402078009DA0A07D39444444393D40CA
:1008000040403D3C24FF2424487E4943662B2FFC76
:100810002F2BFF0929F620C0887E09032054547924
:10082000410000447D413048484A32384040227AF5
:10083000007A0A0A727D0D19317D2629292F282672
:100840002929292630484D4020380808080808087A
:100850000808382F10C8ACBA2F102834FA00007BD3
:10086000000008142A142222142A140895002200D9
:1008700095AA005500AAAA55AA55AA000000FF0093
:10088000101010FF00141414FF001010FF00FF10D0
:1008900010F010F0141414FC001414F700FF000002
:1008A000FF00FF1414F404FC141417101F10101F81
:1008B000101F1414141F00101010F0000000001F6F
:1008C000101010101F10101010F010000000FF107A
:1008D0001010101010101010FF10000000FF140076
:1008E00000FF00FF00001F10170000FC04F41414A8
:1008F0001710171414F404F40000FF00F714141474
:1009000014141414F700F7141414171410101F10F3
:100910001F141414F4141010F010F000001F101F16
:100920000000001F14000000FC140000F010F01084
:1009300010FF10FF141414FF141010101F000000FB
:1009400000F010FFFFFFFFFFF0F0F0F0F0FFFFFFFF
:100950000000000000FFFF0F0F0F0F0F3844443856
:10096000447C2A2A3E147E02020606027E027E0291
:1009700063554941633844443C04407E201E2006B0
:10098000027E020299A5E7A5991C2A492A1C4C72ED
:1009900001724C304A4D4D303048784830BC625A74
:1009A000463D3E494949007E0101017E2A2A2A2A04
:1009B0002A44445F444440514A444040444A5140E0
:1009C0000000FF0103E080FF000008086B6B0836A1
:1009D00012362436060F090F060000181800000012
:1009E0001010003040FF0101001F01011E00191D01
:1009F0001712003C3C3C3C0000000000AED5F0A8C3
:100A00003FD300408D14A1C8DA1281CFD9F1DB4069
:100A1000A4A6AF200021007F220007F243444546F0
:100A2000F23C3D3E3F404142FFFFFFFFFFFFFFFF23
:100A3000FFFFFFFFFFFFFFFFFFFFFFFFFFFFFFFFC6
:100A4000FFFFFFFFFFFFFFFFFFFFFFFFFFFFFFFFB6
:100A5000FFFFFFFFFFFFFFFFFFFFFFFFFFFFFFFFA6
:100A6000FFFFFFFFFFFFFFFFFFFFFFFFFFFFFFFF96
:100A7000FFFFFFFFFFFFFFFFFFFFFFFFFFFFFFFF86
:100A8000FFFFFFFFFFFFFFFFFFFFFFFF01F4F4F495
:100A90007474747474747474747474747474747416
:100AA0007474747474747474FFFFFFFFFFFFFFFFAE
:100AB000FF7BFFFFDBFFFFDDFFFFFFFFFFFFFFFF10
:100AC000FFFFFFFFFFFFFFFF7BFFFFDBFFFFDDFF00
:100AD000FFFFFFFFFFFFFFFFFFFFFFFFFFFFFFFF26
:100AE000FFFFFFFFFFFFFFFFFF7BFFFFDBFFFFDDE0
:100AF000FFFFFFFFFFFFFFFF5EA79B35359BA75E54
:100B0000FFFFFFFFFFFFFFFFFFFFFFFF00FFFFFFF4
:100B10007EBDDBE7E7DBBD7E7EBDDBE7E7DBBD7EE1
:100B20007EBDDBE7E7DBBD7EFFFFFFFFFFFFFFFFD3
:100B3000FFFFFFFFFFFFFFFFFFFFFFFFFFFFFFFFC5
:100B40007BFFFFDBFFFFDDFFFFFFFFFFFFFFFFFF7F
:100B5000FFFFFFFFFFFFFFFFFFFFFFFFFFFFFFFFA5
:100B6000FFFFFFFFFFFFFFFFFFFFFFFFFFFFFFFF95
:100B7000FFFFFFFFFFFFFFFFFFFFFFFFFFFFFFFF85
:100B8000B7B505757505B5B7FFFFFFFF00FFFFFFA0
:100B90007EBDDBE7E7DBBD7E7EBDDBE7E7DBBD7E61
:100BA0007EBDDBE7E7DBBD7EFFFFFFFFFFFFFFFF53
:100BB000FFFFFFFFFFFFFFFFFFFFFFFFFFFFFFFF45
:100BC000FFFFFFFFFFFFFFFF7BFFFFDBFFFFDDFFFF
:100BD000FFFFFFFFFFFFFFFFFFFFFFFFFFFFFFFF25
:100BE000FFFFFFFFFFFFFFFFFFFFFFFFFFFFFFFF15
:100BF0005EA79B35359BA75EFFFFFFFFFFFFFFFF53
:100C0000FFFFFF0000FFFFFFFFFFFFFF802F2F2FE1
:100C10002E2E2E2E2E2E2E2E2E2E2E2E2E2E2E2EF4
:100C20002E2E2E2E2E2E2E2EEE78F4F8DCAADCAAF6
:100C3000EE78F4F8DCAADCAA7C11AB53A74FBF7F97
:100C4000FFFFFFFFFFFFFFFFFFFFFFFFFFFFFFFFB4
:100C5000FFFFFFFFFFFFFFFFFFFFFFFFFFFFFFFFA4
:100C6000FFFFFFFFFFFFFFFFFFFFFFFFFFFFFFFF94
:100C7000FFFFFFFFFFFFFFFFFFFFFFFFFFFFFFFF84
:100C8000FFFFFFFFFFFFFFFFFFFFFFFFFF00FFFF73
:100C90008195A9B5B9BDBD818195A9B5B9BDBD8104
:100CA0008195A9B5B9BDBD81EF79F5FADDAEDFADAE
:100CB000EF79F5FADDAEDFAD7E11A255AA51A81489
:100CC000FFFFDBFFFFDDFFFFFF7BFFFFDBFFFFDD44
:100CD000FFFFFFFFFFFFFFFFFFFFFFFFFFFFFFFF24
:100CE000FFDBFFFFDDFFFFFFFFFFFFFFFFFFFFFF5A
:100CF000FFFFFFFFFFFFFFFFFFFFFFFFFFFFFFFF04
:100D0000FFFFFFFFFFFFFFFFFFFFFFFFFF00FFFFF2
:100D100036B6B686B6B6B63036B6B686B6B6B630DF
:100D200036B6B686B6B6B630EF79F5FADDAEDFADDB
:100D3000EF79F5FADDAEDFAD7E11A255AA51A81408
:100D4000FFFFFFFFFFFFFFFFFFFFFFFFFFFFFFFFB3
:100D5000FFFFFFFFFFFFFFFFFFFFFFFFFFFFFFFFA3
:100D6000FFFFFFFFFFFFFFFFFFFFFFFFFFFFFFFF93
:100D7000FFFFFFFFFFFFFFFF7BFFFFDBFFFFDDFF4D
:100D8000FFFFFFFFFFFFFFFFFFFFFFFFFF00FFFF72
:100D900036B6B686B6B6B63036B6B686B6B6B6305F
:100DA000FFFF01FD05757575EF79F5FADDAEDFAD75
:100DB000EF79F5FADDAEDFAD7E7D7AB54A9DAAC04A
:100DC000FFFFFFFFFFFFFFFFFFFFFFFFFFFFFFFF33
:100DD000FF7BFFFFDBFFFFDDFF7BFFFFDBFFFFDDB7
:100DE000FF7BFFFFDBFFFFDDFFFFFFFFFFFFFFFFDD
:100DF000FFFFFFFFFFFFFFFFFFFFFFFFFFFFFFFF03
:100E0000FFFFFFFFFFFFFFFFFFFFFFFFFF807FFFF1
:100E1000C0C0B686868686868686868686868686CE
:100E20007E7E00BFA0AEA0AEF2393AF100F23A3BAE
:100E30000B0CF23435360B0C3709383233F22A2BCF
:100E40002C2D2E2F00303132332F000B0C35203457
:100E500020332032203120302E2E2E00F22324F198
:100E600000F2251C0B0C0826272829F21A1B1C0F40
:100E7000101D1E1F20212216F20F100B0C06071149
:100E80001213141516171819F200010203040506AF
:100E90000708090A0B0C0D0EFFFFFFFFFFFFFFFF06
:100EA00080BFBFBFBFBFB3B0B0B3BFBFBFBFBF8006
:100EB000FFFFFFFFFFFFFFFFFFFFFFFFFFFFFFFF42
:100EC000FFFFFFFFFFFFFF00FFFFFFFFFFFFFFFF31
:100ED000FF807FFFFFF0EFE0E0EFE0EFE0EFEFEF0C
:100EE000EFEFEFEFEFE0EFE0EFE0E0EFEFEFEFEF4E
:100EF000EFEFEFE0E0EFEFEFEFEFEFEFEFEFEFEF20
:100F0000EFEFEFEFEFEFDF3FFF07D7D7D7D7D707E9
:100F10005F5F5F5F5F5F5F5F57D7178F8F1757D731
:100F200057D7178F8F1757D757D7178F8F1757D771
:100F300057D7178F8F1757D757D7178F8F1757D761
:100F400057D7178F8F175700FFFFFFFFFFFFFFFFD8
:100F5000FFFFFFFEFEFEFE000086809A989E9E9E8A
:100F60009E9E9E9E9E989A80860000FEFEFEFEFE3D
:100F7000FEFEFE0000FEFEFEFEFEFEFEFEFEFEFE8D
:100F8000FEFEFE01FFFFFF00FF007F7F7F7F7F00EF
:100F9000EBEBEBEBEBEB8BBB5E5E407F401E5E1E34
:100FA0005E5E0078405E5E1E5E5E407F405E5E1E5E
:100FB0005E5E407F405E5E1E5E5E407F405E5E1E07
:100FC0005E5E407F405E5E00FFFFFFFFFFFFFFFFB2
:100FD000FFFFFFFFFFFFFFE0FDFEFEFEFEFEFEFE49
:100FE000FEFEFEFEFEFEFEFEFEFDE0FFFFFFFFFF3B
:100FF000FFFFFF0000E7E7E7E7E7E7E7E7E7E7E707
:1010000081BD8D308DBD9900BD0000FDFCFFFFFF4F
:10101000FFFFFFFFFFFFFFFFFFFFFFFFFFFFFFFFE0
:10102000FFFFFFFFFFFFFFFFFFFFFFFFFFFFFFFFD0
:10103000FFFFFFFFFFFFFFFFFFFFFFFFFFFFFFFFC0
:101040000707E7E0F0FFFFFFFFFFFFFFFFFFFFFFE6
:10105000FFFFFFFFFFFFFFFFFFFFFFFFFFFFFFFFA0
:10106000FFFFFFFFFFFFFFFFFFFFFFFFFFFFFFFF90
:10107000FFFFFF0000FFFFFFFFFFFFFFFFFFFFFF7E
:10108000FFFFFF00FFFFFF00FF0000BFBFBFBFBFAC
:10109000BFBFBFBFBFBFBFBFFFFFFFFFFFFFFFFF60
:1010A0000FEFEFEFEFEFEFEFEFEFEFEFEFEFEF0F10
:1010B000FFFFFFFFFFFFFFFF0FEFEFEFEFEFEFEFA0
:1010C00080C0EFEFEFEFEF0FFFFFFFFFFFFFFFFF2E
:1010D000FFFFFFFFFFFFFFFFFFFFFFFFFFFFFFFF20
:1010E000FFFFFFFFFFFFFFFFFFFFFFFFFFFFFFFF10
:1010F000FFFFFF0000FF1FDFDFDFDFDFDFDFDFDFFE
:1011000003FDFAF2E2EAEAEAEAEAEAE2F2FAFD03C7
:10111000FFFFFFFFFFFFFFFFFFFFFFFFFFFFFFFFDF
:1011200000FE027A7A7A7A7A7A02FEAAFEAAAA00E7
:10113000F3F3F3F1F9F9F9F900FEFEF2F272BE3EB3
:10114000BE72F2F2FE8AFE00FFFFFFFFFFFFFFFF0D
:10115000FFFFFFFFFFFFFFCFAF6F6F6F6F6F6F6F0F
:101160006F6F6F6F6F6F6F6FAFCFFFFFFFFFFFFF8F
:1011700000F6F6F6F6F6F600878B878B878B878B63
:1011800000FFFFFFFFFFFFFFFFFFFFFFFFFFFF006D
:10119000CCD2D2CCD2D2CCD2565A565A565A565A11
:1011A000007F6B7F6B7F6B7F6F6F6F6F77787F00D8
:1011B000565A565A565A565A007F7F7F78756D6038
:1011C0006D75787F7F7F7F007979797901037F7FE3
:1011D0007F077B0B6B037D0E363B3B1B3A3A350B8F
:1011E0007F0B353A3A1B3B3B360E7C007C0676760D
:1011F000007F6A7F6A6A7F00878B878B878B878BEC
:10120000003FBFBFBFBFBFBFBFBFBFBFBFBF3F006C
:10121000565A565A565A565AFFFFFFFFFFFFFFFF16
:10122000FFFFFFFFFFFFFFFFFFFFFFFFFFFFFFFFCE
:10123000FFFFFFFFFFFFFFFFFFFFFFFFFFFFFFFFBE
:10124000FFFFFFFFFFFFFFFFFFFFFFFFFFFFFFFFAE
:10125000FFFFFFFFFFFFFFFFFFFFFFFFFFFFFFFF9E
:10126000FFFFFFFFFFFFFFFFFFFFFFFFFFFFFFFF8E
:10127000FFFFFFFFFFFFFFFFFFFFFFFFFFFFFFFF7E
:10128000FEFDFDFDFDFDFDFDFDFDFDFDFDFDFDFE8C
:10129000FFFFFFFFFFFFFFFF530F11241FBECFEF24
:1012A000D8E0DEBFCDBF11E0A0E0B1E0E6EDF6E2B0
:1012B00002C005900D92A037B107D9F726E0A0E74C
:1012C000B1E001C01D92A234B207E1F719E0CDE40C
:1012D000D9E004C02197FE010E945E13CC34D107EF
:1012E000C9F70E949C0F0C9469130C940000CF92D4
:1012F000DF92EF92FF920F931F93CF93DF936C01D6
:101300007A018B01C0E0D0E0CE15DF0589F0D8016D
:101310006D918D01D601ED91FC910190F081E02D50
:10132000C6010995892B11F47E0102C02196ECCFEC
:10133000C701DF91CF911F910F91FF90EF90DF9048
:10134000CF900895FC01538D448D252F30E0842FDC
:1013500090E0821B930B541710F0CF9608950197DD
:101360000895FC01918D828D981761F0828DDF01C7
:10137000A80FB11D5D968C91928D9F5F9F73928F88
:1013800090E008958FEF9FEF0895FC01918D828D7D
:10139000981731F0828DE80FF11D858D90E008954A
:1013A0008FEF9FEF0895FC01918D228D892F90E0A2
:1013B000805C9F4F821B91098F73992708958EE857
:1013C00095E00E94D30921E0892B09F420E0822FC7
:1013D0000895FC01848DDF01A80FB11DA35ABF4FF2
:1013E0002C91848D90E001968F739927848FA68924
:1013F000B7892C93A089B1898C9180648C93938D4B
:10140000848D981306C00288F389E02D80818F7D3A
:1014100080830895EF92FF920F931F93CF93DF93F2
:10142000EC0181E0888F9B8D8C8D981305C0E88935
:10143000F989808185FD24C0F62E0B8D10E00F5FA9
:101440001F4F0F731127E02E8C8DE8120CC00FB6C2
:1014500007FCFACFE889F989808185FFF5CFCE01B5
:101460000E94E909F1CF8B8DFE01E80FF11DE35ACF
:10147000FF4FF0820B8FEA89FB898081806207C071
:10148000EE89FF896083E889F9898081806480839F
:1014900081E090E0DF91CF911F910F91FF90EF904D
:1014A0000895CF93DF93EC01888D8823C9F0EA89F2
:1014B000FB89808185FD05C0A889B9898C9186FD4D
:1014C0000FC00FB607FCF5CF808185FFF2CFA8894A
:1014D000B9898C9185FFEDCFCE010E94E909E7CF54
:1014E000DF91CF91089580E090E0892B29F00E9450
:1014F000DF0981110C94000008953FB7F8948091A2
:10150000750190917601A0917701B091780126B58F
:10151000A89B05C02F3F19F00196A11DB11D3FBF2B
:10152000BA2FA92F982F8827820F911DA11DB11DB9
:10153000BC01CD0142E0660F771F881F991F4A95B5
:10154000D1F708958F929F92AF92BF92CF92DF9280
:10155000EF92FF926B017C010E947D0A4B015C01BE
:10156000C114D104E104F104F1F00E947D0ADC0110
:10157000CB0188199909AA09BB09883E9340A105A6
:10158000B10570F321E0C21AD108E108F10888EE34
:10159000880E83E0981EA11CB11CC114D104E10483
:1015A000F10419F7DDCFFF90EF90DF90CF90BF905F
:1015B000AF909F908F90089568EE73E080E090E088
:1015C0000C94A20A2FB7F894609171017091720186
:1015D00080917301909174012FBF0895339902C0D7
:1015E00080E801C080E04A9B8061319B80624B9B18
:1015F00080644C9B8860329B846008958093BB001C
:1016000084E88093BC008091BC0087FFFCCF0895E4
:1016100084EA8093BC008091BC0087FFFCCF88E700
:101620000C94FE0A0E94080B80E48093BB0084E8BF
:101630008093BC00EEE8F1E09091BC0097FFFCCFF6
:1016400091919093BB008093BC0095E0EE38F90730
:1016500099F78091BC0087FFFCCF84E98093BC00A0
:101660008091BC0084FDFCCF08952F923F924F9251
:101670005F926F927F928F929F92AF92BF92CF9222
:10168000DF92EF92FF920F931F93CF93DF93CDB72B
:10169000DEB72D970FB6F894DEBF0FBECDBFED823B
:1016A000E22EF12C9C012E0D3F1D37FD32C18038FA
:1016B00091050CF02EC19B01200F311D37FD29C172
:1016C000603471050CF025C1DB0177FF04C0AA2747
:1016D000BB27A61BB70BA770BB279B0177FF02C0D8
:1016E000295F3F4F13E0359527951A95E1F777FF6E
:1016F00008C02150310968E070E0FB01EA1BFB0BD8
:10170000DF01E02FE695E695E695CE2ED12C077009
:1017100019F0FFEFCF1ADF0AB9017695762F662709
:1017200077956795680F791F62577E4F8601020F84
:10173000131F19870887C12CD12CF8E0AF2EB12CCC
:1017400085010A1B1B0B1F830E8308851985201733
:10175000310709F4DEC02830310509F4DAC02F3F23
:101760001FEF31070CF4CAC08B0100581F4F1D87B3
:101770000C874B013B012B011C011C830B831A833B
:1017800009831B861A860A851B850E151F050CF01A
:10179000B5C010E82116310409F4B0C037FC89C087
:1017A0002F3FEFEF3E0709F4B0C00A851B850C0DF3
:1017B0001D1DFD81F13079F4F801E40FF51FE4916E
:1017C000F0E08F010A2E01C0000F0A94EAF7F3013E
:1017D000B0800B2925C0FD81F11114C0F801E40F80
:1017E000F51FE491F0E00A2E02C0EE0FFF1F0A94ED
:1017F000E2F78F0100951095F401A080B12C0A2129
:101800001B210EC0F801E40FF51FE491F0E08F01F9
:101810000A2E01C0000F0A94EAF7F201B0800B25EE
:101820000083109709F445C02730310509F441C001
:101830000A851B850C0D1D1DFD81F13089F4F80111
:10184000E40FF51FE4910E2F10E00E8002C01595F5
:1018500007950A94E2F7EC85FD85B0800B2928C036
:10186000FD81F11115C0F801E40FF51FE4910E2F71
:1018700010E00E8002C0159507950A94E2F70095D6
:101880001095E981FA81A080B12C0A211B2110C09A
:10189000F801E40FF51FE4910E2F10E00E8002C056
:1018A000159507950A94E2F7EB81FC81B0800B2532
:1018B00000830A851B850F5F1F4F1B870A870C85D6
:1018C0001D850F5F1F4F1D870C8709811A810F5FD0
:1018D0001F4F1A8309830B811C810F5F1F4F1C83CD
:1018E0000B831FEF211A310AEFEF4E1A5E0AFFEF4A
:1018F0006F1A7F0A0FEF801A900A45CF2F5F3F4F74
:1019000060587F4FCE0CDF1C20CF109709F090CF8E
:10191000D0CF2D960FB6F894DEBF0FBECDBFDF91AE
:10192000CF911F910F91FF90EF90DF90CF90BF90DC
:10193000AF909F908F907F906F905F904F903F906F
:101940002F90089560387105D0F440345105B8F4F3
:10195000E4EFF4E080E1849FD001A0781124A60F89
:101960004770E40FF11D8491A257BE4F222319F056
:101970006C91862B03C080956C9186238C9308957F
:101980008F929F92AF92BF92CF92DF92EF92FF928F
:101990000F93CF93DF936B01EC014C01840E911CEC
:1019A0005B01A20EB11CC815D905ECF47601D7FE77
:1019B00010C0E12CF12C0DC0E816F90694F4202F8C
:1019C000A701BE018FE296E00E94A20C2FEFE21A5F
:1019D000F20AC50121E4A216B10474F380E490E098
:1019E000EBCF2196E0CFDF91CF910F91FF90EF9059
:1019F000DF90CF90BF90AF909F908F9008952F92DF
:101A00003F924F925F926F927F928F929F92AF928E
:101A1000BF92CF92DF92EF92FF920F931F93CF93DB
:101A2000DF93CDB7DEB729970FB6F894DEBF0FBEB0
:101A3000CDBFFC016A3069F425898189928938E03B
:101A4000239F800D911D1124928B818B108A178604
:101A5000AAC06D3009F4A7C099878887F5883488B3
:101A60002388618872880785108900381105C4F0C1
:101A7000A885B98555962C915597422F50E01F9611
:101A80008D919C915097B6E02B9F800D911D112454
:101A9000E885F985908B8787268921116EC083C0E0
:101AA000F0E46F16710424F7C80125E0F29E800D62
:101AB000911D112418161906DCF68F2D90E09C83D9
:101AC0008B83C301A8E0FA9E800D911D1124181686
:101AD000190674F6B5E06B9FB0011124FB01E450C8
:101AE000FB4FFA83E98330E08885998504969E83CD
:101AF0008D83E981FA81E490353009F4E12C4301CA
:101B000088E0482EE0FC02C0532C01C0522C51103A
:101B10000BC0321009C0E6944A948B819C81880ED8
:101B2000991E4110EFCF1BC068018C2D801B8F15B3
:101B300090F754018A2D88198F1568F4252DA50179
:101B4000B6018D819E813F830E94A20C9FEFA91A4E
:101B5000B90A3F81EFCFAFEFCA1ADA0AE6CF3F5F8B
:101B6000EB81FC810E0F1F1F89819A8101969A8358
:101B70008983363009F0BDCF7BCF6AEF64039001D3
:101B8000659F300D112420583F4F281739075CF40A
:101B9000A885B985ED91FC9111970190F081E02D18
:101BA0006AE0CD01099581E090E029960FB6F8949E
:101BB000DEBF0FBECDBFDF91CF911F910F91FF9080
:101BC000EF90DF90CF90BF90AF909F908F907F90DD
:101BD0006F905F904F903F902F90089508950895D3
:101BE00080E090E008956F927F928F929F92AF92E3
:101BF000BF92CF92DF92EF92FF920F931F93CF93FA
:101C0000DF931F92CDB7DEB7182F362FF22E942E0A
:101C10003A0187E0882E862D89198F1550F5F3013A
:101C20004491473410F5812F90E08937910514F0E5
:101C3000385F10E0C32ED12CA12EB12C849EA001C0
:101C400011244D5F5C4FE12C08E027E0B601C5018F
:101C500039830E94350B21E042E053E0B601C50113
:101C600007960E94350B185F3981FFEF6F1A7F0AC4
:101C7000D2CF0F90DF91CF911F910F91FF90EF90F6
:101C8000DF90CF90BF90AF909F908F907F906F909C
:101C900008950E946413CF93DF9300D000D0CDB796
:101CA000DEB7611571058105910579F09B01AC01E5
:101CB00069833A834B835C830E94E51229813A81D0
:101CC0004B815C810E94FB1203C060E070E0CB019D
:101CD0000F900F900F900F90DF91CF9108951F926A
:101CE0000F920FB60F9211242F933F934F935F9350
:101CF0006F937F938F939F93AF93BF93EF93FF93D4
:101D00008EE895E00E94E909FF91EF91BF91AF91B4
:101D10009F918F917F916F915F914F913F912F9103
:101D20000F900FBE0F901F9018951F920F920FB635
:101D30000F9211242F938F939F93EF93FF93E09132
:101D40009E05F0919F058081E091A405F091A50585
:101D500082FD12C090818091A7058F5F8F732091C3
:101D6000A805821751F0E091A705F0E0E257FA4F7D
:101D7000958F8093A70501C08081FF91EF919F917E
:101D80008F912F910F900FBE0F901F9018951F925B
:101D90000F920FB60F9211242F933F938F939F931F
:101DA000AF93BF938091710190917201A0917301E3
:101DB000B09174013091700123E0230F2D3720F48E
:101DC0000196A11DB11D05C026E8230F0296A11D95
:101DD000B11D209370018093710190937201A093C3
:101DE0007301B09374018091750190917601A09177
:101DF0007701B09178010196A11DB11D8093750105
:101E000090937601A0937701B0937801BF91AF9141
:101E10009F918F913F912F910F900FBE0F901F9028
:101E200018950F931F93CF93DF938C0181E090E07F
:101E30000E94F31280FF2FC08AE090E00E94F3120C
:101E40009FEF980F9E3F38F522E330E0D80150967F
:101E50003C932E931F9728E330E052963C932E93A9
:101E60005197CBE0D0E0D801ED91FC910190F08149
:101E7000E02D682FC8010995CE010E94F31221962A
:101E8000C131D10581F70E94120BDF91CF911F91D3
:101E90000F910C94DC0ADF91CF911F910F9108955F
:101EA00004970C94110FEEE8F5E01382128288EE8D
:101EB00093E0A0E0B0E084839583A683B7838EE4AB
:101EC00091E09183808385EC90E09587848784EC12
:101ED00090E09787868780EC90E0918B808B81ECF7
:101EE00090E0938B828B82EC90E0958B848B86ECD8
:101EF00090E0978B868B118E128E138E148EEBE2F0
:101F0000F6E0138212821186128680E183871086A2
:101F10001782158680E691E0918380838EE691E0BA
:101F200095838483108A1786128A118A81E0838BB5
:101F3000148A858B168A0895789484B5826084BD4E
:101F400084B5816084BD85B5826085BD85B58160BD
:101F500085BD80916E00816080936E00109281003B
:101F600080918100826080938100809181008160F6
:101F700080938100809180008160809380008091B7
:101F8000B10084608093B1008091B0008160809343
:101F9000B00080917A00846080937A0080917A000A
:101FA000826080937A0080917A00816080937A00C9
:101FB00080917A00806880937A001092C10081EC51
:101FC00080937C0088B18E6088B987B18E6087B9B4
:101FD0008BB18C618BB98AB18C6F8AB98BB1806EF1
:101FE0008BB91092B90088E48093B8000E94080B66
:101FF00080E00E94FE0ACCEFD9E01C2F115EFE01AA
:1020000084910E94FE0A21961C13F9CF84E98093E3
:10201000BC008091BC0084FDFCCF91E09093B8009F
:10202000E0919E05F0919F0582E08083E0919A0502
:10203000F0919B051082E0919C05F0919D0580E157
:1020400080831092A605E091A205F091A30586E099
:102050008083E091A005F091A1058081806180835B
:10206000E091A005F091A105808188608083E091D6
:10207000A005F091A105808180688083E091A00592
:10208000F091A10580818F7D808310923E06909310
:102090003F0644244A9435E0332E44E0242E52E097
:1020A000752EC1E06EE8A62E61E0B62E7BE0672EAD
:1020B000E7E05E2EF9E38F2E912C0E94E20A009158
:1020C0007D0110917E0120917F0130918001025E9F
:1020D0001F4F2F4F3F4F601771078207930760F123
:1020E0000E94E20A60937D0170937E0180937F01DC
:1020F00090938001409200010E94EE0A87FD1092A9
:1021000000010E94EE0A84FDC09300010E94EE0AC5
:1021100085FD709200010E94EE0A86FF03C023E055
:10212000209300010E94EE0A83FD209200010E948C
:10213000EE0A82FD3092000180910001843028F483
:10214000C0938A018093050102C010928A018430F5
:10215000C1F480918B018823A1F00E94E20A0091D2
:1021600085011091860120918701309188010C50E2
:102170001E4F2F4F3F4F601771078207930708F0DC
:10218000C6C180E0F50181118FEF00248193819316
:10219000819381930394D1F710923D0610923C06EF
:1021A00010923B0610923A0680918D01882321F00F
:1021B000813009F488C1A6C1EE24E39400E420E84C
:1021C00048E95EE060E070E080E090E00E94350B5E
:1021D000D1E164E070E080E090E00E944B0E6B0182
:1021E0007C0166E070E080E090E00E944B0EEBE244
:1021F000CE0ED11CE11CF11C655F7F4F8F4F9F4FAE
:1022000020E0A6018FE296E00E94A20CD15009F7CF
:1022100063E070E080E090E00E944B0E6E5B7F4FC9
:102220008F4F9F4F20E044E350E08FE296E00E9402
:10223000A20C63E070E080E090E00E944B0E645BD3
:102240007F4F8F4F9F4F20E044E350E08FE296E0B6
:102250000E94A20CE0910501D0918901F0E0EE0FFF
:10226000FF1F80918A01E80FF11DEE0FFF1FEE0F97
:10227000FF1FED0FF11DEE0FFF1FE65FFE4F4081C8
:1022800051816091030170910401E12C00E120E192
:1022900080910101909102010E94350B0E94E20A97
:1022A0000091790110917A0120917B0130917C019C
:1022B00006501F4F2F4F3F4F60177107820793073C
:1022C00090F00E94E20A6093790170937A01809302
:1022D0007B0190937C01DF5FD43018F4D0938901A7
:1022E00002C010928901E0918C018E2F90E08D3018
:1022F000910508F007C1FC01EC5CFF4F0C945E13E4
:10230000C0938B0120E148E85EE0CCC020E148E7C3
:102310005EE0C8C02DE04BE65EE0C4C02FE04CE5B7
:102320005EE0C0C010923B0610923A0690923D06C5
:1023300080923C060DE41EE0F8016491662309F4E6
:10234000E1C0E0912B06F0912C060190F081E02D88
:102350008BE296E009950F5F1F4F892B69F7D2C07A
:1023600010928B0100E020E440E860E070E080E043
:1023700090E00E94C00C86E072C06AEF70E080E0DE
:1023800090E00E94A20A50928C01BCC0C0938B01C5
:1023900020E14DE35EE069E380E00E94F30DD9E8BF
:1023A0006BE170E080E090E00E944B0E6B017C01DD
:1023B00062E170E080E090E00E944B0EF1E1CF0E10
:1023C000D11CE11CF11C605C7F4F8F4F9F4F20E0C0
:1023D000A6018FE296E00E94A20CD15009F792C0AC
:1023E0002BE042E35EE069E380E00E94F30D01E050
:1023F00028E143E165E170E08FE390E00E94C00CCA
:10240000D6E362E170E080E090E00E944B0E6B0149
:102410007C016EE070E080E090E00E944B0E87014E
:10242000760124E2E20EF11C011D111D67597F4F58
:102430008F4F9F4F20E0A7018FE296E00E94A20CF1
:10244000D150F9F65FC010928B0101E020E440E822
:1024500060E070E080E090E00E94C00C8AE0809331
:102460008C0150C06AEF70E080E090E00E94A20A08
:1024700001E028E143E165E170E08FE390E00E9434
:10248000C00C60928C013EC0C0938B0101E028E13A
:1024900043E165E170E08FE390E00E94C00C2AE028
:1024A00048E25EE069E380E02BC0C0938D011092AA
:1024B0008C0101E028E143E165E170E08FE390E009
:1024C0000E94C00C1FC0EE24E39400E420E848E220
:1024D0005AE060E070E080E090E00E94350B80916F
:1024E0008C0181110FC010928B0128E040E25AE06C
:1024F00060E00E94F30D25E04BE15AE060E388E2E2
:102500000E94F30D0E94120B0E94730AD6CD809197
:102510008C018F5F80938C010E94E20A6093850199
:102520007093860180938701909388012ACE8F92C1
:102530009F92AF92BF92CF92DF92EF92FF92CF9392
:10254000DF93EC01688179818A819B816115710536
:102550008105910521F464E279ED8BE597E02DE1A9
:1025600033EF41E050E00E94FB1249015A019B0108
:10257000AC01A7EAB1E40E941A136B017C01ACEE36
:10258000B4EFA50194010E942813DC01CB018C0D4E
:102590009D1DAE1DBF1DB7FF03C00197A109B04827
:1025A00088839983AA83BB83BC01CD019F77DF9188
:1025B000CF91FF90EF90DF90CF90BF90AF909F9022
:1025C0008F9008950E949712089586E091E00E94EE
:1025D0009712089560930601709307018093080194
:1025E000909309010895F999FECF92BD81BDF89AA3
:1025F000992780B50895052E97FB1EF400940E943C
:10260000121357FD07D00E942D1307FC03D04EF480
:102610000C94121350954095309521953F4F4F4F94
:102620005F4F089590958095709561957F4F8F4F7E
:102630009F4F08950E944F13A59F900DB49F900D3A
:10264000A49F800D911D11240895B7FF0C941A13B7
:102650000E941A13821B930B0895A1E21A2EAA1B43
:10266000BB1BFD010DC0AA1FBB1FEE1FFF1FA21742
:10267000B307E407F50720F0A21BB30BE40BF50B3F
:10268000661F771F881F991F1A9469F760957095C8
:10269000809590959B01AC01BD01CF010895A29F4B
:1026A000B001B39FC001A39F700D811D1124911D26
:1026B000B29F700D811D1124911D0895EE0FFF1F13
:1026C0000590F491E02D099481E090E0F8940C9449
:0626D0006913F894FFCF2E
:1026D600FF41001D000101000000E202C202A20249
:1026E600C2028202C2026202C20242022202020244
:1026F6002202E2012202C2012202A2018201620139
:10270600820142018201220182010201E200C2002D
:10271600E200A200E2008200E200000000000A0AD5
:102726007709A209510AD309B109C50900000000B9
:10273600FF0C7709F00DEF0D110FFCFF0000500F95
:00000001FF
